:020000040800F2
:1000000000800120B102000801030008010300087C
:1000100001030008010300080103000800000000BC
:1000200000000000000000000000000001030008C4
:10003000010300080000000001030008010300089C
:10004000000000000103000801030008010300088C
:100050000103000801030008010300080103000870
:100060000103000801030008010300080103000860
:100070000103000801030008010300080103000850
:10008000010300080103000801030008000000004C
:100090000000000000000000000000000103000854
:1000A0000103000801030008010300080103000820
:1000B0000103000801030008010300080103000810
:1000C0000103000801030008010300080103000800
:1000D00001030008010300080103000800000000FC
:1000E00001030008010300080103000800000000EC
:1000F00000000000000000000000000001030008F4
:1001000000000000010300080103000801030008CB
:1001100000000000000000000000000000000000DF
:10012000010300080103000801030008010300089F
:1001300001030008000000000000000000000000B3
:1001400000000000000000000000000001030008A3
:10015000010300080103000801030008010300086F
:100160000103000801030008000000000000000077
:10017000000000000000000000000000000000007F
:10018000000000000000000000000000000000006F
:04019000010300085F
:1001940010B5054C237833B9044B13B10448AFF3BD
:1001A40000800123237010BD000000200000000027
:1001B4004C03000808B5034B1BB103490348AFF3D4
:1001C400008008BD00000000040000204C0300086B
:1001D40080B500AF00F04CF800F002F8FEE7000034
:1001E40080B400AF214B1B6C204A43F0010313641D
:1001F4004FF080430F229A624FF0804340F23F1247
:10020400DA624FF080439B694FF0804243F0600311
:1002140093614FF080439B694FF0804243F00803A1
:1002240093614FF080439B694FF0804243F4C04395
:1002340093614FF080439B694FF0804243F4006325
:1002440093614FF080431B6A4FF0804243F05003A8
:1002540013624FF080431B684FF0804243F0010368
:10026400136000BFBD465DF8047B70470038024050
:1002740080B400AF0B4B1B6B0A4A43F001031363BA
:10028400094B1B68084A43F420531360064B1B6A4E
:10029400054A43F08873136200BFBD465DF8047BD2
:1002A400704700BF00380240000002400D488546F8
:1002B400AFF300800C480D490D4A002302E0D458E6
:1002C400C4500433C4188C42F9D30A4A0A4C00239C
:1002D40001E013600432A242FBD300F011F8FFF7EF
:1002E40077FFFEE7008001200000002000000020CE
:1002F4006C030008000000201C000020FEE7000042
:1003040070B50D4D0D4C641BA4100026A64209D1F6
:100314000B4D0C4C00F018F8641BA4100026A642E8
:1003240005D170BD55F8043B98470136EEE755F802
:10033400043B98470136F2E76403000864030008AD
:100344006403000868030008F8B500BFF8BC08BCE3
:100354009E467047F8B500BFF8BC08BC9E4670477F
:04036400B9010008D3
:0403680095010008F3
:04000005080002B13C
:00000001FF
