:020000040800F2
:1000000000280020CD030008B5030008B70300084E
:10001000B9030008BB030008BD030008000000008E
:10002000000000000000000000000000BF03000806
:10003000C103000800000000C3030008C503000856
:10004000150400081504000815040008150400082C
:10005000150400081504000815040008150400081C
:10006000150400081504000815040008150400080C
:1000700015040008150400081504000815040008FC
:1000800015040008150400081504000815040008EC
:1000900015040008150400081504000815040008DC
:1000A00015040008150400081504000815040008CC
:1000B00015040008150400080000000015040008DD
:1000C00015040008000000000000000015040008EE
:1000D00000000000150400081504000800000000DE
:1000E00015040008150400081504000800000000AD
:1000F0000000000000000000000000000000000000
:0C01000000000000000000005FF808F1A3
:10010C0010B5054C237833B9044B13B10448AFF345
:10011C0000800123237010BD0C00002000000000A3
:10012C002810000808B5034B1BB103490348AFF373
:10013C00008008BD000000001000002028100008FE
:10014C0000B591B02422002107A800F05FFF142213
:10015C00002101A800F05AFF02230121069310236D
:10016C0006A8CDE90A1300F0D9FA014608B172B617
:10017C00FEE70F23CDE90300CDE90130059001A87E
:10018C0000F08EFC08B172B6FEE711B05DF804FB0E
:10019C00002580B55A4E8AB000F05CF9FFF7D0FF0D
:1001AC000595B369022443F00403B361B3690427D2
:1001BC0003F004030293029B0123524803A9CDE9E7
:1001CC000334069400F0D4F94E4803A9CDE9034456
:1001DC00069400F0CDF94B4803A9CDE903740694BD
:1001EC0000F0C6F91C22294603A800F00FFFF369A2
:1001FC00454C43F00103F361F369204603F001031E
:10020C000193019B4FF08043C4E9003548F69F43AE
:10021C00A560C4E90335A56100F084FD024608B170
:10022C0072B6FEE7602544F24F630590079003A970
:10023C002046CDE9035300F0CDFD08B172B6FEE7C0
:10024C0042F227330790CDE904303A46204603A901
:10025C00039500F0BFFD08B172B6FEE746F67713C2
:10026C000790CDE904300822204603A9039500F03D
:10027C00B1FD054608B172B6FEE7204600F070F8F5
:10028C0022682946536C204643F40043536400F023
:10029C0059FE08B172B6FEE73946204600F052FE10
:1002AC0008B172B6FEE70821204600F04BFE08B1FB
:1002BC0072B6FEE70021204600F044FE4FF47A703F
:1002CC0000F0ECF80021204600F07AFE04212046D4
:1002DC0000F038FE4FF47A7000F0E0F8042120466C
:1002EC0000F06EFE0821204600F02CFE4FF47A70D0
:1002FC0000F0D4F80821204600F062FEDAE700BFD7
:10030C000010024000080140280000200A4B82B077
:10031C009A6942F001029A619A6902F00102009214
:10032C00009ADA6942F08052DA61DB6903F080539B
:10033C000193019B02B0704700100240036882B029
:10034C00B3F1804F0AD103F50433DA6942F00102AC
:10035C00DA61DB6903F001030193019B02B0704782
:10036C0010B5044686B01022002102A800F04EFE03
:10037C002368B3F1804F13D103F504339A6909480C
:10038C0042F004029A619B690F2203F0040301936B
:10039C00019B022302A9CDE90223059300F0E8F8A2
:1003AC0006B010BD00080140FEE7FEE7FEE7FEE7E1
:1003BC00FEE770477047704700F05EB8704700006A
:1003CC00FFF7FCFF0B480C490C4A002302E0D45801
:1003DC00C4500433C4188C42F9D3094A094C002385
:1003EC0001E013600432A242FBD300F0EBFDFFF7F7
:1003FC00CFFE7047000000200C0000206C1000089D
:10040C000C00002074000020FEE7000038B50E4BF5
:10041C00054618784FF47A73B3FBF0F30B4A106867
:10042C00B0FBF3F000F090F8044658B90F2D09D842
:10043C00024629464FF0FF3000F054F82046044B9A
:10044C001D6038BD0120FCE70400002000000020E6
:10045C0008000020074A08B51368032043F0100376
:10046C00136000F02DF80F20FFF7D0FFFFF74EFFC1
:10047C00002008BD00200240034A044B11681B7881
:10048C000B441360704700BF700000200400002074
:10049C00014B1868704700BF7000002038B5044647
:1004AC00FFF7F6FF0546631C1EBF044B1B78E418D0
:1004BC00FFF7EEFF431BA342FAD338BD0400002024
:1004CC0007490302CA6803F4E06322F4E0621204F1
:1004DC00120C134343F0BF6343F40033CB607047FB
:1004EC0000ED00E0164B30B5DC68C4F30224C4F117
:1004FC000703251D042B28BF0423062D4FF0FF35C1
:10050C0098BF002405FA03F388BF033C21EA0303D8
:10051C00A34005FA04F422EA0402002843EA020389
:10052C00ACBF00F16040074A4FEA0313DBB2ABBF2C
:10053C0000F5614000F00F0080F80033135430BD1B
:10054C0000ED00E014ED00E00138B0F1807F0BD23B
:10055C004FF0E023F021054A586182F82310002067
:10056C00072298611A6170470120704700ED00E086
:10057C002DE9F74F00221646614F624BDFF888C118
:10058C00DFF888E10D6835FA06F402D103B0BDE856
:10059C00F08F4FF0010808FA06F805EA080438EA6B
:1005AC00050577D14D68032D07D8013D022D00F2CA
:1005BC008280DFE805F092979D00122D00F0958067
:1005CC006AD8112D00F08B80FF2C98BF82464FF01B
:1005DC000F0988BF00F1040A4FEA8605DAF800809B
:1005EC0088BF203D09FA05FB28EA0B0802FA05F53D
:1005FC0048EA0505CAF80050D1F804A01AF0805F4B
:10060C0048D0BD6926F0030845F00105BD61BD6900
:10061C0008F1804805F00105019508F5803806F0D1
:10062C00030B019D4FEA8B0BD8F8085009FA0BF914
:10063C0025EA0909364DA8425ED005F58065A84229
:10064C005CD005F58065A8420CBF0225032505FA90
:10065C000BF545EA0905C8F808509D681AF4801F87
:10066C0014BF2543A5439D60DD681AF4001F14BF19
:10067C002543A543DD605D681AF4003F14BF254394
:10068C00A5435D601D681AF4803F14BF2C4325EA16
:10069C0004041C60013675E7DFF878904D450AD0EC
:1006AC0015D8754507D0A9F580394D4503D0A9F566
:1006BC0080194D4588D18A68E2B1012A08BFC0F87B
:1006CC0010804FF0080218BFC0F814807CE7DFF8E8
:1006DC0048904D45EFD06545ECE7CA6874E7CA68A9
:1006EC00043271E7CA6808326EE7CA680C326BE7ED
:1006FC00002269E7042267E70025A8E70125A6E7A1
:10070C0000100240000401400000321000001210E2
:10071C000008014000002210000031102DE9F341C7
:10072C00054638B30368DB0710D42B689F075ED4EB
:10073C002B68190700F195802B685A0700F1C180CE
:10074C00E869002840F02C81002029E0904C636877
:10075C0003F00C03042B07D0636803F00C03082B85
:10076C000AD16368DE0307D523689C03DDD56B686B
:10077C00002BDAD1012013E06B68B3F5803F12D166
:10078C00236843F480332360FFF782FE0646236818
:10079C009803CAD4FFF77CFE801B6428F7D903208A
:1007AC0002B0BDE8F0819BB9236823F48033236049
:1007BC00236823F480232360FFF76AFE0646236830
:1007CC009903B2D5FFF764FE801B6428F7D9E6E7DE
:1007DC00B3F5A02F236803D143F480232360CFE724
:1007EC0023F480332360236823F48023CBE7684C05
:1007FC00636813F00C0F07D0636803F00C03082B2D
:10080C0010D16368DA030DD423689B0702D52B69DA
:10081C00012BAFD123686A6923F0F80343EAC203C2
:10082C00236085E72A695B4B6AB101221A60FFF7E6
:10083C002FFE064623689F07ECD4FFF729FE801B8A
:10084C000228F7D9ABE71A60FFF722FE06462368A9
:10085C0098077FF56DAFFFF71BFE801B0228F6D9BA
:10086C009DE7AA694A4E4B4BE2B10122C3F88024A2
:10087C00FFF70EFE0446736A9B070DD54FF4FA5230
:10088C00454B1B68B3FBF2F3019300BF019B5A1E4F
:10089C000192002BF9D14FE7FFF7FAFD001B02285C
:1008AC00E9D97CE7C3F88024FFF7F2FD0446736AAC
:1008BC009F077FF541AFFFF7EBFD001B0228F6D930
:1008CC006DE7334CE369D80024D40127E36943F086
:1008DC008053E361E36903F080530093009B2F4E38
:1008EC003368D90518D5EB68012B26D1236A43F060
:1008FC0001032362FFF7CCFD41F288380646236AD8
:10090C009B073FD5002F3FF41BAFE36923F08053C7
:10091C00E36115E70027E2E7336843F48073336043
:10092C00FFF7B6FD80463368DA05DCD4FFF7B0FD7F
:10093C00A0EB08006428F6D931E7ABB9236A41F281
:10094C00883823F001032362236A23F00403236213
:10095C00FFF79EFD0646236A9807D3D5FFF798FD4F
:10096C00801B4045F7D91AE7052B236A03D143F0C6
:10097C0004032362BAE723F001032362236A23F002
:10098C000403B6E7FFF784FD801B4045B7D906E7A3
:10099C0000100240000042420000002000700040A5
:1009AC002A4C636803F00C03082B3ED00022284B22
:1009BC0002281A662CD1FFF76BFD064623689901B5
:1009CC0020D42B6AB3F5803F05D16268A96822F464
:1009DC0000320A436260696A62680B4322F4741243
:1009EC001343012263601A4B1A66FFF751FD05464B
:1009FC0023689A013FF5A8AEFFF74AFD401B022879
:100A0C00F6D9CCE6FFF744FD801B0228D6D9C6E602
:100A1C00FFF73EFD054623689B017FF595AEFFF77A
:100A2C0037FD401B0228F6D9B9E601283FF4B8AED1
:100A3C0063682A6A03F4803191427FF49BAE6A6A40
:100A4C0003F4701393423FF47FAE93E60010024020
:100A5C00000042420D4A536803F00C01082912D1E0
:100A6C000B48C3F38341DB03405C09D55368094A47
:100A7C00C3F340435043084AD35CB0FBF3F07047D8
:100A8C00064B584370470348704700BF00100240A4
:100A9C005010000800127A006010000800093D0098
:100AAC002DE9F0410D46044610B90120BDE8F08156
:100ABC00444A136803F007038B4228D321688E073E
:100ACC0030D4CA0743D43F4A136803F00703AB4240
:100ADC0065D822683C4D12F0040F6CD1130706D573
:100AEC006B68226923F4605343EAC2036B60FFF71F
:100AFC00B1FF6B68354AC3F30313D35CD840344B56
:100B0C001860344B1868FFF781FC0020CEE713689F
:100B1C0023F007030B431360136803F007038B42A6
:100B2C00C3D1CBE7284B11F0040F1EBF5A6842F417
:100B3C00E0625A60080742BF5A6842F460525A6039
:100B4C005A68A06822F0F00202435A60B9E7626862
:100B5C001D4E012A33681AD113F4003FA5D07368D7
:100B6C0041F2883823F0030313437360FFF790FCC2
:100B7C0007467368626803F00C03B3EB820FA2D0D4
:100B8C00FFF786FCC01B4045F3D903208EE7022AF1
:100B9C0002D113F0007FE1E713F0020FDEE71368D8
:100BAC0023F007032B431360136803F00703AB42D6
:100BBC007FF47BAF8DE76B68E16823F4E0630B4354
:100BCC006B608BE7002002400010024040100008D0
:100BDC000000002008000020036A026A70B522F0B1
:100BEC0001020262446882690D6822F073022A4392
:100BFC008D6823F002032B430A4DA8420BD1CD681C
:100C0C0023F008032B4324F44074D1E905563543F3
:100C1C0023F004032C43446082614A6842630362FC
:100C2C0070BD00BF002C0140036A026A70B522F44B
:100C3C00807202624468C2690D6822F073022A4312
:100C4C008D6823F4007343EA05230B4DA8420DD1A4
:100C5C00CD6823F4006343EA052324F44054D1E91E
:100C6C000556354323F4806344EA05144460C2619D
:100C7C004A68C263036270BD002C0140036A026AB9
:100C8C0030B522F4805202624468C2690D6822F4C5
:100C9C00E64242EA05228D6823F4005343EA053309
:100CAC00064DA84202BF4D6924F4804444EA8514E1
:100CBC004460C2614A680264036230BD002C01408A
:100CCC00164A10B59042036805D0B0F1804F02D09F
:100CDC00134CA04210D14C6823F07003904243EAAD
:100CEC00040305D0B0F1804F02D00D4A904203D1DD
:100CFC00CA6823F4407313434A6923F080031343F7
:100D0C0003608B68C3620B688362044B984204BF18
:100D1C000B6903630123436110BD00BF002C01402C
:100D2C000004004010B5044630B390F83D3003F099
:100D3C00FF021BB980F83C20FFF700FB0223206860
:100D4C0084F83D30211DFFF7BBFF0123002084F800
:100D5C00463084F83E3084F83F3084F8403084F8D4
:100D6C00413084F8423084F8433084F8443084F8BD
:100D7C00453084F83D3010BD0120FCE7036A026A5F
:100D8C0070B522F010020262446882690D6822F488
:100D9C00E64242EA05228D6823F0200343EA05135C
:100DAC000B4DA8420DD1CD6823F0800343EA051307
:100DBC0024F44064D1E90556354323F0400344EA5A
:100DCC008504446082614A688263036270BD00BF1F
:100DDC00002C014070B590F83C300546012B53D0E7
:100DEC000120082A85F83C003DD006D8C2B1042A5F
:100DFC0028D0002385F83C3070BD0C2AF9D1286826
:100E0C00FFF73CFF2B680969DA6942F40062DA618A
:100E1C00DA6922F48062DA61DA6942EA012231E0AD
:100E2C002868FFF7D9FE2B6809699A6942F0080215
:100E3C009A619A6922F004029A619A690A439A614A
:100E4C000020D6E72868FFF799FF2B6809699A6993
:100E5C0042F400629A619A6922F480629A619A69FA
:100E6C0042EA0122EBE72868FFF7DEFE2B680969EE
:100E7C00DA6942F00802DA61DA6922F00402DA6116
:100E8C00DA690A43DA61DBE70220B5E710B5012421
:100E9C00036A01F01F018C4023EA04030362036A16
:100EAC008A401A43026210BD10B5044629B990F865
:100EBC003E30012B21D0012010BD042907D190F820
:100ECC003F30012BF7D1022384F83F3018E008297A
:100EDC0007D190F84030012BEDD1022384F840303B
:100EEC000EE090F84130012BE5D10429EBD0082914
:100EFC00F3D0022380F8413002E0022380F83E3028
:100F0C0001222068FFF7C2FF23680C4A93420AD1E2
:100F1C005A6C42F400425A649A6802F00702062A9C
:100F2C0007D10020C8E7B3F1804FF5D0044A9342B3
:100F3C00F2D01A6842F001021A60F2E7002C01406C
:100F4C0000040040FFF7B0BF38B50446002200682B
:100F5C000D46FFF79BFF2368184A93420DD141F2CF
:100F6C001112196A114208D140F24442196A114215
:100F7C0002BF5A6C22F400425A6441F21112196AEF
:100F8C00114208D140F24442196A114202BF1A6858
:100F9C0022F001021A6001231DB984F83E300020B2
:100FAC0038BD042D02D184F83F30F8E7082D0CBF72
:100FBC0084F8403084F84130F1E700BF002C014048
:100FCC00FFF7C2BF70B500260C4D0D4C641BA4106E
:100FDC00A64209D100F022F800260A4D0A4C641BE7
:100FEC00A410A64205D170BD55F8043B98470136B4
:100FFC00EEE755F8043B98470136F2E76410000819
:10100C0064100008641000086810000803460244CD
:10101C00934200D1704703F8011BF9E7F8B500BF04
:10102C00F8BC08BC9E467047F8B500BFF8BC08BCBD
:04103C009E46704715
:101040000000000000000000010203040607080978
:1010500002030405060708090A0B0C0D0E0F1010F9
:041060000102000089
:04106400310100084E
:041068000D0100086E
:0C106C000024F40001000000100000004F
:04000005080003CD1F
:00000001FF
