:020000040800F2
:1000000000280020E5030008CD030008CF03000806
:10001000D1030008D3030008D50300080000000046
:10002000000000000000000000000000D7030008EE
:10003000D903000800000000DB030008DD0300080E
:100040002D0400082D0400082D0400082D040008CC
:100050002D0400082D0400082D0400082D040008BC
:100060002D0400082D0400082D0400082D040008AC
:100070002D0400082D0400082D0400082D0400089C
:100080002D0400082D0400082D0400082D0400088C
:100090002D0400082D0400082D0400082D0400087C
:1000A0002D0400082D0400082D0400082D0400086C
:1000B0002D0400082D040008000000002D04000895
:1000C0002D04000800000000000000002D040008BE
:1000D000000000002D0400082D04000800000000AE
:1000E0002D0400082D0400082D0400080000000065
:1000F0000000000000000000000000000000000000
:0C01000000000000000000005FF808F1A3
:10010C0010B5054C237833B9044B13B10448AFF345
:10011C0000800123237010BD0C00002000000000A3
:10012C006411000808B5034B1BB103490348AFF336
:10013C00008008BD000000001000002064110008C1
:10014C0000B591B02422002107A800F0FDFF142275
:10015C00002101A800F0F8FF0223012106931023CF
:10016C0006A8CDE90A1300F0E5FA014608B172B60B
:10017C00FEE70F23CDE90300CDE90130059001A87E
:10018C0000F09AFC08B172B6FEE711B05DF804FB02
:10019C00F0B5002591B000F069F9FFF7D1FF4A4B9B
:1001AC0000219A6905A842F020029A619A69474C8D
:1001BC0002F020020192019A9A6942F004029A61BB
:1001CC009B69102203F004030293029B00F0BCFF16
:1001DC001C22294609A8CDE9035500F0B5FF4FF0C4
:1001EC008043C4E9003548F69F432046C4E90335F3
:1001FC00A560656100F0A2FD08B172B6FEE74FF490
:10020C008053204605A9059300F056FE024608B11E
:10021C0072B6FEE76027E3680D905B08CDE90A3003
:10022C0009A92046099700F0E1FD08B172B6FEE776
:10023C00CDE9030003A9204600F038FF064608B1BB
:10024C0072B6FEE70146CDE905001C2209A800F0B4
:10025C007BFF1F4D1F4B2846C5E900364FF6FF7339
:10026C00AE60C5E90336AE6100F068FD08B172B648
:10027C00FEE7CDE9050005A9284600F017FF024668
:10028C0008B172B6FEE7CDE909700B900D9009A983
:10029C00284600F0ABFD064608B172B6FEE72846CC
:1002AC0000F056F83146204600F0FEFE0025E268CC
:1002BC00ABB29A4205F10105F8D322680A205363C8
:1002CC0000F0F8F8F3E700BF00100240280000200F
:1002DC0070000020000400400A4B82B09A6942F082
:1002EC0001029A619A6902F001020092009ADA699D
:1002FC0042F08052DA61DB6903F080530193019B79
:10030C0002B0704700100240036882B0B3F1804F16
:10031C000CD103F50433DA6942F00102DA61DB69CE
:10032C0003F001030093009B02B07047064A93420E
:10033C00FAD1064BDA6942F00202DA61DB6903F0AA
:10034C0002030193019BEFE7000400400010024000
:10035C0010B5044686B01022002102A800F0F4FE6D
:10036C002368B3F1804F15D103F504339A6942F039
:10037C0004029A619B6903F004030093009B012320
:10038C00029302230B4802A90393059300F0FCF897
:10039C0006B010BD084A9342FAD1084B9A6942F054
:1003AC0004029A619B6903F004030193019B4023AF
:1003BC00E6E700BF000801400004004000100240C6
:1003CC00FEE7FEE7FEE7FEE7FEE770477047704783
:1003DC0000F05EB870470000FFF7FCFF0B480C49BB
:1003EC000C4A002302E0D458C4500433C4188C4285
:1003FC00F9D3094A094C002301E013600432A242EC
:10040C00FBD300F07DFEFFF7C3FE70470000002019
:10041C000C000020A81100080C000020BC000020DB
:10042C00FEE7000038B50E4B054618784FF47A738A
:10043C00B3FBF0F30B4A1068B0FBF3F000F090F84C
:10044C00044658B90F2D09D8024629464FF0FF3003
:10045C0000F054F82046044B1D6038BD0120FCE729
:10046C00040000200000002008000020074A08B506
:10047C001368032043F01003136000F02DF80F20D5
:10048C00FFF7D0FFFFF728FF002008BD0020024037
:10049C00034A044B11681B780B441360704700BF70
:1004AC00B800002004000020014B1868704700BF02
:1004BC00B800002038B50446FFF7F6FF0546631C6C
:1004CC001EBF044B1B78E418FFF7EEFF431BA3423F
:1004DC00FAD338BD0400002007490302CA6803F4AC
:1004EC00E06322F4E0621204120C134343F0BF6386
:1004FC0043F40033CB60704700ED00E0164B30B591
:10050C00DC68C4F30224C4F10703251D042B28BFA7
:10051C000423062D4FF0FF3598BF002405FA03F392
:10052C0088BF033C21EA0303A34005FA04F422EA42
:10053C000402002843EA0203ACBF00F16040074A02
:10054C004FEA0313DBB2ABBF00F5614000F00F00C4
:10055C0080F80033135430BD00ED00E014ED00E0E2
:10056C000138B0F1807F0BD24FF0E023F021054A27
:10057C00586182F823100020072298611A61704795
:10058C000120704700ED00E02DE9F74F00221646E0
:10059C00614F624BDFF888C1DFF888E10D6835FAEE
:1005AC0006F402D103B0BDE8F08F4FF0010808FA51
:1005BC0006F805EA080438EA050577D14D68032DDD
:1005CC0007D8013D022D00F28280DFE805F09297FA
:1005DC009D00122D00F095806AD8112D00F08B80B3
:1005EC00FF2C98BF82464FF00F0988BF00F1040A18
:1005FC004FEA8605DAF8008088BF203D09FA05FB32
:10060C0028EA0B0802FA05F548EA0505CAF8005075
:10061C00D1F804A01AF0805F48D0BD6926F0030819
:10062C0045F00105BD61BD6908F1804805F0010583
:10063C00019508F5803806F0030B019D4FEA8B0BF2
:10064C00D8F8085009FA0BF925EA0909364DA842E1
:10065C005ED005F58065A8425CD005F58065A842A2
:10066C000CBF0225032505FA0BF545EA0905C8F868
:10067C0008509D681AF4801F14BF2543A5439D6044
:10068C00DD681AF4001F14BF2543A543DD605D68C7
:10069C001AF4003F14BF2543A5435D601D681AF48E
:1006AC00803F14BF2C4325EA04041C60013675E717
:1006BC00DFF878904D450AD015D8754507D0A9F5C7
:1006CC0080394D4503D0A9F580194D4588D18A68EC
:1006DC00E2B1012A08BFC0F810804FF0080218BF21
:1006EC00C0F814807CE7DFF848904D45EFD06545A5
:1006FC00ECE7CA6874E7CA68043271E7CA68083262
:10070C006EE7CA680C326BE7002269E7042267E7E0
:10071C000025A8E70125A6E70010024000040140CF
:10072C0000003210000012100008014000002210DE
:10073C00000031102DE9F341054638B30368DB079F
:10074C0010D42B689F075ED42B68190700F1958095
:10075C002B685A0700F1C180E869002840F02C8111
:10076C00002029E0904C636803F00C03042B07D0A5
:10077C00636803F00C03082B0AD16368DE0307D50A
:10078C0023689C03DDD56B68002BDAD1012013E0C4
:10079C006B68B3F5803F12D1236843F48033236038
:1007AC00FFF782FE064623689803CAD4FFF77CFE47
:1007BC00801B6428F7D9032002B0BDE8F0819BB9F7
:1007CC00236823F480332360236823F4802323607D
:1007DC00FFF76AFE064623689903B2D5FFF764FE5D
:1007EC00801B6428F7D9E6E7B3F5A02F236803D163
:1007FC0043F480232360CFE723F480332360236802
:10080C0023F48023CBE7684C636813F00C0F07D0FC
:10081C00636803F00C03082B10D16368DA030DD462
:10082C0023689B0702D52B69012BAFD123686A691A
:10083C0023F0F80343EAC203236085E72A695B4B84
:10084C006AB101221A60FFF72FFE064623689F0744
:10085C00ECD4FFF729FE801B0228F7D9ABE71A600E
:10086C00FFF722FE0646236898077FF56DAFFFF76A
:10087C001BFE801B0228F6D99DE7AA694A4E4B4BFA
:10088C00E2B10122C3F88024FFF70EFE0446736A1E
:10089C009B070DD54FF4FA52454B1B68B3FBF2F393
:1008AC00019300BF019B5A1E0192002BF9D14FE717
:1008BC00FFF7FAFD001B0228E9D97CE7C3F8802476
:1008CC00FFF7F2FD0446736A9F077FF541AFFFF710
:1008DC00EBFD001B0228F6D96DE7334CE369D80019
:1008EC0024D40127E36943F08053E361E36903F007
:1008FC0080530093009B2F4E3368D90518D5EB68B5
:10090C00012B26D1236A43F001032362FFF7CCFDB0
:10091C0041F288380646236A9B073FD5002F3FF4E7
:10092C001BAFE36923F08053E36115E70027E2E78F
:10093C00336843F480733360FFF7B6FD8046336849
:10094C00DA05DCD4FFF7B0FDA0EB08006428F6D97B
:10095C0031E7ABB9236A41F2883823F001032362F3
:10096C00236A23F004032362FFF79EFD0646236AE5
:10097C009807D3D5FFF798FD801B4045F7D91AE7A8
:10098C00052B236A03D143F004032362BAE723F057
:10099C0001032362236A23F00403B6E7FFF784FD07
:1009AC00801B4045B7D906E70010024000004242C8
:1009BC0000000020007000402A4C636803F00C0318
:1009CC00082B3ED00022284B02281A662CD1FFF7A8
:1009DC006BFD06462368990120D42B6AB3F5803F42
:1009EC0005D16268A96822F400320A436260696A20
:1009FC0062680B4322F474121343012263601A4B96
:100A0C001A66FFF751FD054623689A013FF5A8AE1B
:100A1C00FFF74AFD401B0228F6D9CCE6FFF744FD50
:100A2C00801B0228D6D9C6E6FFF73EFD0546236893
:100A3C009B017FF595AEFFF737FD401B0228F6D9D9
:100A4C00B9E601283FF4B8AE63682A6A03F4803132
:100A5C0091427FF49BAE6A6A03F4701393423FF4A5
:100A6C007FAE93E600100240000042420D4A5368EC
:100A7C0003F00C01082912D10B48C3F38341DB03AB
:100A8C00405C09D55368094AC3F340435043084AB4
:100A9C00D35CB0FBF3F07047064B584370470348E8
:100AAC00704700BF001002408C11000800127A0041
:100ABC009C11000800093D002DE9F0410D4604464B
:100ACC0010B90120BDE8F081444A136803F0070314
:100ADC008B4228D321688E0730D4CA0743D43F4AAF
:100AEC00136803F00703AB4265D822683C4D12F043
:100AFC00040F6CD1130706D56B68226923F460537D
:100B0C0043EAC2036B60FFF7B1FF6B68354AC3F36E
:100B1C000313D35CD840344B1860344B1868FFF780
:100B2C0081FC0020CEE7136823F007030B4313600E
:100B3C00136803F007038B42C3D1CBE7284B11F0AA
:100B4C00040F1EBF5A6842F4E0625A60080742BFA5
:100B5C005A6842F460525A605A68A06822F0F00257
:100B6C0002435A60B9E762681D4E012A33681AD1F4
:100B7C0013F4003FA5D0736841F2883823F00303C7
:100B8C0013437360FFF790FC07467368626803F0C9
:100B9C000C03B3EB820FA2D0FFF786FCC01B4045C1
:100BAC00F3D903208EE7022A02D113F0007FE1E78C
:100BBC0013F0020FDEE7136823F007032B431360D7
:100BCC00136803F00703AB427FF47BAF8DE76B68D0
:100BDC00E16823F4E0630B436B608BE70020024079
:100BEC00001002407C1100080000002008000020CA
:100BFC00036A026A70B522F00102026244688269DB
:100C0C000D6822F073022A438D6823F002032B43F4
:100C1C000A4DA8420BD1CD6823F008032B4324F4D2
:100C2C004074D1E90556354323F004032C4344604A
:100C3C0082614A684263036270BD00BF002C0140B0
:100C4C00036A026A70B522F4807202624468C26957
:100C5C000D6822F073022A438D6823F4007343EA73
:100C6C0005230B4DA8420DD1CD6823F4006343EA54
:100C7C00052324F44054D1E90556354323F480630D
:100C8C0044EA05144460C2614A68C263036270BDE1
:100C9C00002C0140036A026A30B522F480520262D1
:100CAC004468C2690D6822F4E64242EA05228D6866
:100CBC0023F4005343EA0533064DA84202BF4D69A5
:100CCC0024F4804444EA85144460C2614A68026496
:100CDC00036230BD002C0140164A10B590420368E7
:100CEC0005D0B0F1804F02D0134CA04210D14C680B
:100CFC0023F07003904243EA040305D0B0F1804F17
:100D0C0002D00D4A904203D1CA6823F440731343B6
:100D1C004A6923F08003134303608B68C3620B683A
:100D2C008362044B984204BF0B6903630123436144
:100D3C0010BD00BF002C01400004004010B504465B
:100D4C0030B390F83D3003F0FF021BB980F83C2023
:100D5C00FFF7DAFA0223206884F83D30211DFFF7F3
:100D6C00BBFF0123002084F8463084F83E3084F821
:100D7C003F3084F8403084F8413084F8423084F8B5
:100D8C00433084F8443084F8453084F83D3010BD4D
:100D9C000120FCE7036A026A70B522F010020262BD
:100DAC00446882690D6822F4E64242EA05228D68A5
:100DBC0023F0200343EA05130B4DA8420DD1CD6857
:100DCC0023F0800343EA051324F44064D1E905566B
:100DDC00354323F0400344EA8504446082614A6849
:100DEC008263036270BD00BF002C014070B590F8A7
:100DFC003C300546012B53D00120082A85F83C00D5
:100E0C003DD006D8C2B1042A28D0002385F83C3046
:100E1C0070BD0C2AF9D12868FFF73CFF2B680969D3
:100E2C00DA6942F40062DA61DA6922F48062DA612A
:100E3C00DA6942EA012231E02868FFF7D9FE2B6813
:100E4C0009699A6942F008029A619A6922F00402CF
:100E5C009A619A690A439A610020D6E72868FFF7DD
:100E6C0099FF2B6809699A6942F400629A619A6940
:100E7C0022F480629A619A6942EA0122EBE72868BF
:100E8C00FFF7DEFE2B680969DA6942F00802DA61C5
:100E9C00DA6922F00402DA61DA690A43DA61DBE723
:100EAC000220B5E710B584680A4324F47F4442EA73
:100EBC0003222243826010BD70B590F83C3004468A
:100ECC00012B4FF0020300F09180012280F83D309D
:100EDC0080F83C200068836823F47F4323F0770379
:100EEC0083600B68602B52D033D8402B67D016D858
:100EFC00202B0DD00AD833F0100109D0012384F82F
:100F0C003D30002384F83C30104670BD302BF5D1B9
:100F1C00826822F07002134343F0070317E0502B52
:100F2C00ECD14A68CE68016A056A21F00A0125F005
:100F3C000105056283690A4323F0F00343EA0613B3
:100F4C0083610262836823F0700343F0570383606C
:100F5C0011E0B3F5805F0ED0B3F5005F0DD0702BB0
:100F6C00CCD1CB68D1E90121FFF79CFF22689368B3
:100F7C0043F0770393600022C0E7CB68D1E90121ED
:100F8C00FFF790FF2268936843F48043F2E7036A0B
:100F9C004D68CE68016A23F0A00321F010010162B4
:100FAC00826943EA051322F4704242EA06328261F6
:100FBC000362836823F0700343F06703C7E74A6852
:100FCC00CE68016A056A21F00A0125F00105056267
:100FDC0083690A4323F0F00343EA06138361026238
:100FEC00836823F0700343F04703B0E71A468BE79E
:100FFC0010B50124036A01F01F018C4023EA04039D
:10100C000362036A8A401A43026210BD10B504469B
:10101C0029B990F83E30012B21D0012010BD0429B4
:10102C0007D190F83F30012BF7D1022384F83F30E1
:10103C0018E0082907D190F84030012BEDD102239C
:10104C0084F840300EE090F84130012BE5D10429B2
:10105C00EBD00829F3D0022380F8413002E00223C0
:10106C0080F83E3001222068FFF7C2FF23680C4A4B
:10107C0093420AD15A6C42F400425A649A6802F0C4
:10108C000702062A07D10020C8E7B3F1804FF5D03C
:10109C00044A9342F2D01A6842F001021A60F2E755
:1010AC00002C014000040040FFF7B0BF30B590F8B1
:1010BC003C200346012A4FF002001ED01A6883F828
:1010CC003D0054680D6824F070042C439068546003
:1010DC000A4CA24206D0B2F1804F03D0A4F594344E
:1010EC00A24204D1496820F08000014391600122A2
:1010FC00002083F83D2083F83C0030BD002C0140DB
:10110C0070B500260C4D0D4C641BA410A64209D1E1
:10111C0000F022F800260A4D0A4C641BA410A642CB
:10112C0005D170BD55F8043B98470136EEE755F8EC
:10113C00043B98470136F2E7A0110008A011000803
:10114C00A0110008A411000803460244934200D1E8
:10115C00704703F8011BF9E7F8B500BFF8BC08BCF1
:10116C009E467047F8B500BFF8BC08BC9E46704759
:10117C00000000000000000001020304060708093B
:10118C0002030405060708090A0B0C0D0E0F1010BC
:04119C00010200004C
:0411A0003101000811
:0411A4000D01000831
:0C11A8000024F400010000001000000012
:04000005080003E507
:00000001FF
