:020000040800F2
:1000000000000220310D0008B90C0008BF0C0008E8
:10001000C50C0008CB0C0008D10C00080000000043
:10002000000000000000000000000000D70C0008E5
:10003000E50C000800000000F30C0008010D0008AA
:10004000810D0008810D0008810D0008810D000858
:10005000810D0008810D0008810D0008810D000848
:10006000810D0008810D0008810D0008810D000838
:10007000810D0008810D0008810D0008810D000828
:10008000810D0008810D0008810D0008810D000818
:10009000810D0008810D0008810D0008810D000808
:1000A000810D0008810D0008810D0008810D0008F8
:1000B000810D0008810D0008810D0008810D0008E8
:1000C000810D0008810D0008810D0008810D0008D8
:1000D000810D0008810D0008810D0008810D0008C8
:1000E000810D0008810D0008810D0008810D0008B8
:1000F000810D0008810D0008810D0008810D0008A8
:10010000810D0008810D0008810D0008810D000897
:10011000810D0008810D0008810D0008810D000887
:10012000810D0008810D0008810D0008810D000877
:10013000810D00080000000000000000810D000893
:10014000810D0008810D0008810D0008810D000857
:10015000810D0008810D0008810D0008810D000847
:10016000810D0008810D0008810D0008810D000837
:10017000810D0008810D0008810D000800000000BD
:1001800000000000810D00080000000000000000D9
:10019000810D00080000000000000000810D000833
:1001A000000000000000000000000000810D0008B9
:1001B000810D0008810D0008810D0008810D0008E7
:0401C000810D0008A5
:1001C40010B5054C237833B9044B13B10448AFF38D
:1001D40000800123237010BD0C00002000000000EB
:1001E400BC30000808B5034B1BB103490348AFF307
:1001F400008008BD0000000010000020BC30000892
:1002040053B94AB9002908BF00281CBF4FF0FF3179
:100214004FF0FF3000F074B9ADF1080C6DE904CE75
:1002240000F006F8DDF804E0DDE9022304B07047CD
:100234002DE9F047089D04468E46002B4DD18A4295
:10024400944669D9B2FA82F252B101FA02F3C2F1C8
:10025400200120FA01F10CFA02FC41EA030E944059
:100264004FEA1C48210CBEFBF8F61FFA8CF708FB7A
:1002740016E341EA034306FB07F199420AD91CEB52
:10028400030306F1FF3080F01F81994240F21C8184
:10029400023E63445B1AA4B2B3FBF8F008FB1033CC
:1002A40044EA034400FB07F7A7420AD91CEB040401
:1002B40000F1FF3380F00A81A74240F207816444D1
:1002C400023840EA0640E41B00261DB1D440002356
:1002D400C5E900433146BDE8F0878B4209D9002DBA
:1002E40000F0EF800026C5E9000130463146BDE844
:1002F400F087B3FA83F6002E4AD18B4202D38242AE
:1003040000F2F980841A61EB030301209E46002D5C
:10031400E0D0C5E9004EDDE702B9FFDEB2FA82F2B1
:10032400002A40F09280A1EB0C014FEA1C471FFA0F
:100334008CFE0126200CB1FBF7F307FB131140EAF6
:1003440001410EFB03F0884208D91CEB010103F1C3
:10035400FF3802D2884200F2CB804346091AA4B285
:10036400B1FBF7F007FB101144EA01440EFB00FE59
:10037400A64508D91CEB040400F1FF3102D2A645BE
:1003840000F2BB800846A4EB0E0440EA03409CE75D
:10039400C6F12007B34022FA07FC4CEA030C20FA0A
:1003A40007F401FA06F31C43F9404FEA1C4900FA2A
:1003B40006F3B1FBF9F8200C1FFA8CFE09FB1811A7
:1003C40040EA014108FB0EF0884202FA06F20BD91A
:1003D4001CEB010108F1FF3A80F08880884240F26A
:1003E4008580A8F102086144091AA4B2B1FBF9F0AE
:1003F40009FB101144EA014100FB0EFE8E4508D9A9
:100404001CEB010100F1FF346CD28E456AD902382D
:10041400614440EA0840A0FB0294A1EB0E01A14212
:10042400C846A64656D353D05DB1B3EB080261EB80
:100434000E0101FA07F722FA06F3F1401F43C5E95A
:10044400007100263146BDE8F087C2F12003D84090
:100454000CFA02FC21FA03F3914001434FEA1C47D2
:100464001FFA8CFEB3FBF7F007FB10360B0C43EAC4
:10047400064300FB0EF69E4204FA02F408D91CEB74
:10048400030300F1FF382FD29E422DD90238634472
:100494009B1B89B2B3FBF7F607FB163341EA034112
:1004A40006FB0EF38B4208D91CEB010106F1FF3861
:1004B40016D28B4214D9023E6144C91A46EA004658
:1004C40038E72E46284605E70646E3E61846F8E6EA
:1004D4004B45A9D2B9EB020864EB0C0E0138A3E733
:1004E4004646EAE7204694E74046D1E7D0467BE714
:1004F400023B614432E7304609E76444023842E78C
:10050400704700BF80B500AF00F03AFC00F05EF821
:1005140000F070FA00F0C6F800F062F900F0F0F9AB
:100524000021274801F0B0FE0421254801F094FD84
:100534000021244801F0A8FE0421224801F08CFD8A
:100544000021214801F0A0FE04211E4801F09CFE78
:100554000346002B06D10021194801F095FE0346FD
:10056400002B01D000F09CFA0021154801F08CFE0C
:1005740042F2107000F076FC0421124801F084FE6F
:100584000F4B1B6842F228325A6341F2883000F064
:1005940069FC0C4B1B6842F228329A6341F28830A2
:1005A40000F060FC0021064801F036FF04210548F4
:1005B40001F032FF4FF47A7000F054FCD4E700BF2E
:1005C4002800002070000020B800002080B594B0FE
:1005D40000AF07F11C0334220021184602F064FD29
:1005E40007F1080300221A605A609A60DA601A61FF
:1005F40000237B60294B1B6C284A43F0805313640F
:10060400264B1B6C03F080537B607B6800233B60AC
:10061400234B1B6823F44043214A43F48043136073
:100624001F4B1B6803F440433B603B680123FB61A1
:100634004FF480333B6202237B634FF48003BB633C
:100644000423FB635A233B6402237B640223BB64BD
:100654000223FB6407F11C03184601F0B7F90346B3
:10066400002B01D000F01CFA0F23BB600223FB60B7
:1006740000233B614FF480537B610023BB6107F18E
:1006840008030221184600F08BFE0346002B01D01C
:1006940000F006FA00BF5037BD4680BD0038024066
:1006A4000070004080B592B000AF07F14003002213
:1006B4001A605A6007F1240300221A605A609A6093
:1006C400DA601A615A619A613B1D202200211846A2
:1006D40002F0EAFC404B414A1A603F4B59225A60EF
:1006E4003D4B00229A603C4B42F20F72DA603A4B67
:1006F40000221A61384B00225A61374B00229A615A
:10070400354801F071FD0346002B01D000F0C8F913
:10071400314801F048FC0346002B01D000F0C0F939
:1007240050233B6400237B6407F1400319462A48A5
:1007340002F0C8FB0346002B01D000F0B1F960239E
:100744007B624FF47A63BB620023FB6200233B634A
:1007540000237B630023BB630023FB6307F12403B3
:10076400002219461C4801F023FF0346002B01D048
:1007740000F096F910237B6240F60553BB6207F143
:10078400240304221946144801F0B6FE0346002B44
:1007940001D000F085F900237B600023BB600023B7
:1007A400FB6000233B6100237B614FF40053BB617A
:1007B40000233B623B1D1946074802F0FFFB03463A
:1007C400002B01D000F06CF9034800F0EFF900BFF2
:1007D4004837BD4680BD00BF28000020000001400E
:1007E40080B58EB000AF07F1240300221A605A606E
:1007F4009A60DA601A6107F11C0300221A605A60D9
:100804003B4600221A605A609A60DA601A615A61A3
:100814009A613A4B4FF080421A60384B59225A6021
:10082400364B00229A60354B42F20F72DA60334B3A
:1008340000221A61314B00229A61304801F064FBB6
:100844000346002B01D000F02BF92C4801F0CCFC1E
:100854000346002B01D000F023F9284801F0A3FB44
:100864000346002B01D000F01BF900237B62002318
:10087400BB6207F124031946204801F05BFF0346DD
:10088400002B01D000F00CF95023FB6100233B62E4
:1008940007F11C031946194802F014FB0346002B08
:1008A40001D000F0FDF860233B604FF47A637B6075
:1008B4000023BB6000233B613B46002219460F48DE
:1008C40001F076FE0346002B01D000F0E9F8102376
:1008D4003B6040F605537B603B46042219460748BB
:1008E40001F00AFE0346002B01D000F0D9F80348BA
:1008F40000F05CF900BF3837BD4680BD70000020B1
:1009040080B58EB000AF07F1240300221A605A604C
:100914009A60DA601A6107F11C0300221A605A60B7
:100924003B4600221A605A609A60DA601A615A6182
:100934009A612E4B2E4A1A602C4B59225A602B4B2B
:1009440000229A60294B42F20F72DA60274B002290
:100954001A61264B00229A61244801F0D5FA034615
:10096400002B01D000F09CF8204801F01CFB03464A
:10097400002B01D000F094F806237B621023BB62A5
:1009840007F124031946194801F0D4FE0346002B4D
:1009940001D000F085F80023FB6100233B6207F1DE
:1009A4001C031946114802F08DFA0346002B01D0AE
:1009B40000F076F800233B604FF47A637B600023F9
:1009C400BB6000233B613B4600221946074801F007
:1009D40093FD0346002B01D000F062F8034800F0B9
:1009E400E5F800BF3837BD4680BD00BFB800002021
:1009F4000004004080B588B000AF0023BB60264BE4
:100A04001B6B254A43F080031363234B1B6B03F0DA
:100A14008003BB60BB6800237B601F4B1B6B1E4ABB
:100A240043F0010313631C4B1B6B03F001037B6056
:100A34007B6807F10C0300221A605A609A60DA603E
:100A44001A6100233B60144B1B6B134A43F00103F0
:100A54001363114B1B6B03F001033B603B680223E0
:100A6400FB6002233B610223BB6107F10C031946BF
:100A74000A4800F001FB4FF48073FB6001233B61E3
:100A84000223BB6107F10C031946044800F0F4FA91
:100A940000BF2037BD4680BD003802400000024040
:100AA40080B400AF72B600BFFEE7000080B483B02C
:100AB40000AF00237B60104B5B6C0F4A43F4804310
:100AC40053640D4B5B6C03F480437B607B680023B1
:100AD4003B60094B1B6C084A43F080531364064B7C
:100AE4001B6C03F080533B603B6800BF0C37BD4672
:100AF4005DF8047B704700BF0038024080B485B0C5
:100B040000AF78607B681B680B4A93420DD10023C9
:100B1400FB600A4B5B6C094A43F001035364074BC7
:100B24005B6C03F00103FB60FB6800BF1437BD4638
:100B34005DF8047B704700BF0000014000380240AC
:100B440080B485B000AF78607B681B68B3F1804FD8
:100B54000ED10023FB60134B1B6C124A43F00103BC
:100B64001364104B1B6C03F00103FB60FB6812E081
:100B74007B681B680C4A93420DD10023BB60094B70
:100B84001B6C084A43F002031364064B1B6C03F00E
:100B94000203BB60BB6800BF1437BD465DF8047B2D
:100BA400704700BF003802400004004080B58AB09E
:100BB40000AF786007F1140300221A605A609A604B
:100BC400DA601A617B681B68364A93421FD100239E
:100BD4003B61354B1B6B344A43F001031363324BC7
:100BE4001B6B03F001033B613B694FF480737B6132
:100BF4000223BB610023FB6100233B6201237B6270
:100C040007F114031946294800F036FA46E07B68D8
:100C14001B68B3F1804F1ED10023FB60224B1B6B7A
:100C2400214A43F0010313631F4B1B6B03F00103C1
:100C3400FB60FB6801237B610223BB610023FB6132
:100C440000233B6201237B6207F114031946174812
:100C540000F012FA22E07B681B68154A93421DD10A
:100C64000023BB60104B1B6B0F4A43F0010313635B
:100C74000D4B1B6B03F00103BB60BB6840237B611E
:100C84000223BB610023FB6100233B6202237B62DE
:100C940007F114031946054800F0EEF900BF2837A0
:100CA400BD4680BD00000140003802400000024003
:100CB4000004004080B400AFFEE780B400AFFEE75C
:100CC40080B400AFFEE780B400AFFEE780B400AFAD
:100CD400FEE780B400AF00BFBD465DF8047B7047FB
:100CE40080B400AF00BFBD465DF8047B704780B49C
:100CF40000AF00BFBD465DF8047B704780B500AF10
:100D040000F090F800BF80BD80B400AF064BD3F86C
:100D14008830054A43F47003C2F8883000BFBD46EA
:100D24005DF8047B704700BF00ED00E0DFF834D0CD
:100D34000D480E490E4A002302E0D458C45004332F
:100D4400C4188C42F9D30B4A0B4C002301E0136006
:100D54000432A242FBD3FFF7D7FF02F081F9FFF779
:100D6400D1FB704700000220000000200C0000208E
:100D7400F43000080C00002004010020FEE700000D
:100D840080B500AF0E4B1B680D4A43F4007313602B
:100D94000B4B1B680A4A43F480631360084B1B68BF
:100DA400074A43F480731360032000F031F90F20E5
:100DB40000F008F8FFF77AFE0023184680BD00BF54
:100DC400003C024080B582B000AF7860124B1A68D4
:100DD400124B1B7819464FF47A73B3FBF1F3B2FB51
:100DE400F3F3184600F03BF90346002B01D001232E
:100DF4000EE07B680F2B0AD8002279684FF0FF3091
:100E040000F011F9064A7B681360002300E0012317
:100E140018460837BD4680BD0000002008000020A9
:100E24000400002080B400AF064B1B781A46064B22
:100E34001B681344044A136000BFBD465DF8047B7D
:100E4400704700BF080000200001002080B400AFFC
:100E5400034B1B681846BD465DF8047B704700BF12
:100E64000001002080B584B000AF7860FFF7EEFF8A
:100E7400B8607B68FB60FB68B3F1FF3F05D00A4BA9
:100E84001B781A46FB681344FB6000BFFFF7DEFFC4
:100E94000246BB68D31AFA689A42F7D800BF00BF6B
:100EA4001037BD4680BD00BF0800002080B485B067
:100EB40000AF78607B6803F00703FB600C4BDB68D2
:100EC400BB60BA684FF6FF031340BB60FB681A02AD
:100ED400BB68134343F0BF6343F40033BB60044A6D
:100EE400BB68D36000BF1437BD465DF8047B704710
:100EF40000ED00E080B400AF044BDB681B0A03F094
:100F040007031846BD465DF8047B704700ED00E01A
:100F140080B483B000AF03463960FB7197F90730A2
:100F2400002B0ADB3B68DAB20C4997F9073012014F
:100F3400D2B20B4483F800230AE03B68DAB20849D2
:100F4400FB7903F00F03043B1201D2B20B441A766F
:100F540000BF0C37BD465DF8047B704700E100E03C
:100F640000ED00E080B489B000AFF860B9607A6049
:100F7400FB6803F00703FB61FB69C3F10703042B60
:100F840028BF0423BB61FB690433062B02D9FB6928
:100F9400033B00E000237B614FF0FF32BB6902FAA0
:100FA40003F3DA43BB681A407B699A404FF0FF3180
:100FB4007B6901FA03F3D9437B680B40134318465A
:100FC4002437BD465DF8047B7047000080B582B0CD
:100FD40000AF78607B68013BB3F1807F01D30123CC
:100FE4000FE00A4A7B68013B53600F214FF0FF304A
:100FF400FFF78EFF054B00229A60044B07221A600C
:10100400002318460837BD4680BD00BF10E000E04D
:1010140080B582B000AF78607868FFF747FF00BF03
:101024000837BD4680BD80B586B000AF0346B960C1
:101034007A60FB7300237B61FFF75CFF78617A6859
:10104400B9687869FFF78EFF024697F90F301146A9
:101054001846FFF75DFF00BF1837BD4680BD80B559
:1010640082B000AF78607868FFF7B0FF0346184697
:101074000837BD4680BD000080B489B000AF7860F9
:10108400396000237B6100233B610023BB610023A3
:10109400FB6165E10122FB6902FA03F37B613B68B2
:1010A4001B687A6913403B613A697B699A4240F054
:1010B40054813B685B6803F00303012B05D03B6854
:1010C4005B6803F00303022B30D17B689B68BB6130
:1010D400FB695B00032202FA03F3DB43BA691340A2
:1010E400BB613B68DA68FB695B0002FA03F3BA6927
:1010F4001343BB617B68BA699A607B685B68BB61B8
:101104000122FB6902FA03F3DB43BA691340BB61B2
:101114003B685B681B0903F00102FB6902FA03F3F5
:10112400BA691343BB617B68BA695A603B685B6800
:1011340003F00303032B17D07B68DB68BB61FB69F7
:101144005B00032202FA03F3DB43BA691340BB6179
:101154003B689A68FB695B0002FA03F3BA691343BC
:10116400BB617B68BA69DA603B685B6803F00303C0
:10117400022B23D1FB69DA087B68083253F822304A
:10118400BB61FB6903F007039B000F2202FA03F320
:10119400DB43BA691340BB613B681A69FB6903F01E
:1011A40007039B0002FA03F3BA691343BB61FB69AB
:1011B400DA087B680832B96943F822107B681B6837
:1011C400BB61FB695B00032202FA03F3DB43BA69E8
:1011D4001340BB613B685B6803F00302FB695B007F
:1011E40002FA03F3BA691343BB617B68BA691A60F4
:1011F4003B685B6803F44033002B00F0AE800023AF
:10120400FB605D4B5B6C5C4A43F4804353645A4B14
:101214005B6C03F48043FB60FB68584AFB699B08E2
:10122400023352F82330BB61FB6903F003039B00D4
:101234000F2202FA03F3DB43BA691340BB617B68F4
:101244004F4A934225D07B684E4A93421FD07B6815
:101254004D4A934219D07B684C4A934213D07B6821
:101264004B4A93420DD07B684A4A934207D07B682D
:10127400494A934201D106230CE007230AE00523DF
:1012840008E0042306E0032304E0022302E0012330
:1012940000E00023FA6902F0030292009340BA6965
:1012A4001343BB613549FB699B080233BA6941F8B2
:1012B40023203A4B9B68BB613B69DB43BA6913400B
:1012C400BB613B685B6803F48013002B03D0BA69ED
:1012D4003B691343BB61314ABB6993602F4BDB68A5
:1012E400BB613B69DB43BA691340BB613B685B6824
:1012F40003F40013002B03D0BA693B691343BB61A9
:10130400264ABB69D360254B5B68BB613B69DB4301
:10131400BA691340BB613B685B6803F40033002B7C
:1013240003D0BA693B691343BB611C4ABB69536070
:101334001A4B1B68BB613B69DB43BA691340BB6151
:101344003B685B6803F48033002B03D0BA693B69C4
:101354001343BB61114ABB691360FB690133FB6131
:10136400FB690F2B7FF696AE00BF00BF2437BD4646
:101374005DF8047B704700BF00380240003801402C
:10138400000002400004024000080240000C024039
:10139400001002400014024000180240003C0140CA
:1013A40080B584B000AF786039607B68002B01D1D0
:1013B4000123CCE0684B1B6803F00F033A689A42A0
:1013C4000CD9654B3A68D2B21A70634B1B6803F0B0
:1013D4000F033A689A4201D00123B8E07B681B6886
:1013E40003F00203002B20D07B681B6803F0040386
:1013F400002B05D0594B9B68584A43F4E053936043
:101404007B681B6803F00803002B05D0534B9B68D3
:10141400524A43F460439360504B9B6823F0F002BC
:101424007B689B684D4913438B607B681B6803F0A2
:101434000103002B44D07B685B68012B07D1474B29
:101444001B6803F40033002B19D101237FE07B6870
:101454005B68022B03D07B685B68032B07D13F4B8F
:101464001B6803F00073002B09D101236FE03B4B91
:101474001B6803F00203002B01D1012367E0374B03
:101484009B6823F003027B685B68344913438B60D9
:10149400FFF7DCFCF8600AE0FFF7D8FC0246FB68C3
:1014A400D31A41F28832934201D903234FE02B4BE4
:1014B4009B6803F00C027B685B689B009A42EBD14B
:1014C400254B1B6803F00F033A689A420CD2224B57
:1014D4003A68D2B21A70204B1B6803F00F033A68C3
:1014E4009A4201D0012332E07B681B6803F00403B5
:1014F400002B08D0194B9B6823F4E0527B68DB680F
:10150400164913438B607B681B6803F00803002BA8
:1015140009D0124B9B6823F460427B681B69DB0093
:101524000E4913438B6000F021F802460B4B9B6875
:101534001B0903F00F030A49CB5C22FA03F3094A9F
:101544001360094B1B681846FFF73CFC0023184640
:101554001037BD4680BD00BF003C02400038024049
:10156400D430000800000020040000202DE9B04F12
:10157400AEB000AF0023C7F8AC300023C7F8B430D6
:101584000023C7F8A8300023C7F8A4300023C7F805
:10159400B030CB4B9B6803F00C030C2B00F206829B
:1015A40001A252F823F000BFE1150008B1190008A8
:1015B400B1190008B1190008E9150008B1190008AB
:1015C400B1190008B1190008F1150008B119000893
:1015D400B1190008B1190008E1170008B94BC7F8A0
:1015E400B030E7E1B84BC7F8B030E3E1B44B5B6827
:1015F40003F03F03C7F8AC30B14B5B6803F48003DE
:10160400002B71D0AE4B5B689B090022C7F8983061
:10161400C7F89C20D7F89830C3F30803C7F8903074
:101624000023C7F89430D7E9244522462B464FF0CF
:1016340000004FF00001590141EAD2615001024615
:101644000B462146511A3964294663EB01037B6436
:101654004FF000024FF00003D7E9108949468B018F
:10166400414643EA916341468A014146511AB963AE
:10167400494663EB0103FB634FF000024FF00003A4
:10168400D7E90E894946CB00414643EA51734146A6
:10169400CA0010461946034622469B183B632B4654
:1016A4000A4642EB03037B634FF000024FF0000352
:1016B400D7E90C4529464B02214643EAD15321463A
:1016C4004A0210461946D7F8AC300022C7F88830D1
:1016D400C7F88C20D7E92223FEF792FD02460B4679
:1016E4001346C7F8B43067E0754B5B689B0900226A
:1016F400C7F88030C7F88420D7F88030C3F30803D4
:10170400BB670023FB67D7E91E4522462B464FF0F3
:1017140000004FF00001590141EAD2615001024634
:101724000B462146511AB962294663EB0103FB6259
:101734004FF000024FF00003D7E90A8949468B01B4
:10174400414643EA916341468A014146B2EB010AAC
:10175400494663EB010B4FF000024FF000034FEAE0
:10176400CB0343EA5A734FEACA0292469B46234686
:101774001AEB03033B622B464BEB03037B624FF0F4
:1017840000024FF00003D7E9084529468B022146A1
:1017940043EA915321468A0210461946D7F8AC30E1
:1017A40000223B677A67D7E91C23FEF729FD02462E
:1017B4000B461346C7F8B430414B5B681B0C03F06F
:1017C400030301335B00C7F8A830D7F8B420D7F877
:1017D400A830B2FBF3F3C7F8B030EBE0384B5B68EA
:1017E40003F03F03C7F8AC30354B5B6803F4800368
:1017F400002B6BD0324B5B689B090022BB66FA66F8
:10180400BB6EC3F308033B6600237B66D7E9184528
:1018140022462B464FF000004FF00001590141EAE7
:10182400D261500102460B462146511AB96129463C
:1018340063EB0103FB614FF000024FF00003D7E9B3
:1018440006AB59468B01514643EA916351468A01DE
:101854005146B2EB0108594663EB01094FF000020F
:101864004FF000034FEAC90343EA58734FEAC80232
:1018740090469946234618EB03033B612B4649EBFC
:1018840003037B614FF000024FF00003D7E90445E6
:1018940029464B02214643EAD15321464A021046C7
:1018A4001946D7F8AC300022BB65FA65D7E9162390
:1018B400FEF7A6FC02460B461346C7F8B43065E0B3
:1018C400003802400024F40000127A003D4B5B68AB
:1018D4009B09002218461146C0F308033B65002308
:1018E4007B65D7E9148942464B464FF000004FF020
:1018F4000001590141EAD261500102460B464146BA
:10190400511AB960494663EB0103FB604FF00002D2
:101914004FF00003D7E902AB59468B01514643EA25
:10192400916351468A015146541A594663EB0105A5
:101934004FF000024FF00003EB0043EA5473E2005F
:1019440014461D464346E3183B604B4645EB0303F0
:101954007B604FF000024FF00003D7E900452946B1
:101964008B02214643EA915321468A0210461946C6
:10197400D7F8AC300022BB64FA64D7E91223FEF72F
:101984003FFC02460B461346C7F8B4300D4B5B6868
:101994001B0F03F00703C7F8A430D7F8B420D7F817
:1019A400A430B2FBF3F3C7F8B03003E0064BC7F83A
:1019B400B03000BFD7F8B0301846B837BD46BDE8E0
:1019C400B08F00BF003802400024F40080B586B018
:1019D40000AF78607B68002B01D101238DE27B6826
:1019E4001B6803F00103002B00F08380944B9B6879
:1019F40003F00C03042B19D0914B9B6803F00C03E8
:101A0400082B06D18E4B5B6803F48003B3F5800F7B
:101A14000CD08B4B9B6803F00C030C2B12D1884B1E
:101A24005B6803F48003B3F5800F0BD1844B1B6810
:101A340003F40033002B5BD07B685B68002B57D129
:101A440001235AE27B685B68B3F5803F06D17C4B87
:101A54001B687B4A43F4803313601DE07B685B683A
:101A6400B3F5A02F0CD1764B1B68754A43F4802341
:101A74001360734B1B68724A43F4803313600BE0AA
:101A84006F4B1B686E4A23F4803313606C4B1B68E6
:101A94006B4A23F4802313607B685B68002B13D0AC
:101AA400FFF7D4F9386108E0FFF7D0F902463B6943
:101AB400D31A642B01D903231FE2614B1B6803F47F
:101AC4000033002BF0D014E0FFF7C0F9386108E0D0
:101AD400FFF7BCF902463B69D31A642B01D90323EF
:101AE4000BE2574B1B6803F40033002BF0D100E0EA
:101AF40000BF7B681B6803F00203002B6FD0504BC0
:101B04009B6803F00C03002B17D04D4B9B6803F02C
:101B14000C03082B05D14A4B5B6803F48003002BAC
:101B24000BD0474B9B6803F00C030C2B1CD1444B8C
:101B34005B6803F48003002B16D1414B1B6803F050
:101B44000203002B05D07B68DB68012B01D0012345
:101B5400D3E13B4B1B6823F0F8027B681B69DB0075
:101B6400374913430B603AE07B68DB68002B20D0D5
:101B7400344B01221A60FFF769F9386108E0FFF776
:101B840065F902463B69D31A022B01D90323B4E158
:101B94002B4B1B6803F00203002BF0D0284B1B686F
:101BA40023F0F8027B681B69DB00254913430B60B3
:101BB40015E0244B00221A60FFF748F9386108E069
:101BC400FFF744F902463B69D31A022B01D90323D8
:101BD40093E11B4B1B6803F00203002BF0D17B68DD
:101BE4001B6803F00803002B36D07B685B69002B6D
:101BF40016D0154B01221A60FFF728F9386108E066
:101C0400FFF724F902463B69D31A022B01D90323B7
:101C140073E10B4B5B6F03F00203002BF0D01BE06E
:101C2400094B00221A60FFF711F938610EE0FFF743
:101C34000DF902463B69D31A022B07D903235CE151
:101C44000038024000004742800E47428A4B5B6FD7
:101C540003F00203002BEAD17B681B6803F0040342
:101C6400002B00F097800023FB75834B1B6C03F063
:101C74008053002B0FD10023BB607F4B1B6C7E4A2B
:101C840043F0805313647C4B1B6C03F08053BB60A4
:101C9400BB680123FB75794B1B6803F48073002B2D
:101CA40018D1764B1B68754A43F480731360FFF7B1
:101CB400CDF8386108E0FFF7C9F802463B69D31A4A
:101CC400022B01D9032318E16C4B1B6803F48073C6
:101CD400002BF0D07B689B68012B06D1664B1B6FF1
:101CE400654A43F0010313671CE07B689B68052B7E
:101CF4000CD1614B1B6F604A43F0040313675E4BC6
:101D04001B6F5D4A43F0010313670BE05A4B1B6FD3
:101D1400594A23F001031367574B1B6F564A23F0AC
:101D2400040313677B689B68002B15D0FFF78EF8BC
:101D340038610AE0FFF78AF802463B69D31A41F298
:101D44008832934201D90323D7E04B4B1B6F03F036
:101D54000203002BEED014E0FFF778F838610AE0B4
:101D6400FFF774F802463B69D31A41F28832934272
:101D740001D90323C1E0404B1B6F03F00203002B86
:101D8400EED1FB7D012B05D13B4B1B6C3A4A23F072
:101D9400805313647B689B69002B00F0AD80364B45
:101DA4009B6803F00C03082B60D07B689B69022BB3
:101DB40045D1334B00221A60FFF748F8386108E038
:101DC400FFF744F802463B69D31A022B01D90323D7
:101DD40093E0294B1B6803F00073002BF0D17B6860
:101DE400DA697B681B6A1A437B685B6A9B011A4346
:101DF4007B689B6A5B08013B1B041A437B68DB6AB4
:101E04001B061A437B681B6B1B071B4913434B6060
:101E14001B4B01221A60FFF719F8386108E0FFF73D
:101E240015F802463B69D31A022B01D9032364E057
:101E3400114B1B6803F00073002BF0D05CE0104BD7
:101E440000221A60FFF702F8386108E0FEF7FEFF8F
:101E540002463B69D31A022B01D903234DE0064BFA
:101E64001B6803F00073002BF0D145E07B689B698D
:101E7400012B07D1012340E00038024000700040EC
:101E8400600047421F4B5B68FB607B689B69012BCA
:101E940030D0FB6803F480027B68DB699A4229D165
:101EA400FB6803F03F027B681B6A9A4222D1FA68FE
:101EB40047F6C07313407A68526A9201934219D16B
:101EC400FB6803F440327B689B6A5B08013B1B049C
:101ED4009A420FD1FB6803F070627B68DB6A1B06D1
:101EE4009A4207D1FB6803F0E0427B681B6B1B0737
:101EF4009A4201D0012300E0002318461837BD465A
:101F040080BD00BF0038024080B582B000AF786069
:101F14007B68002B01D1012341E07B6893F83D30BD
:101F2400DBB2002B06D17B68002283F83C20786862
:101F3400FEF706FE7B68022283F83D207B681A6860
:101F44007B6804331946104600F036FC7B68012296
:101F540083F846207B68012283F83E207B680122B7
:101F640083F83F207B68012283F840207B680122AC
:101F740083F841207B68012283F842207B68012298
:101F840083F843207B68012283F844207B68012284
:101F940083F845207B68012283F83D2000231846FE
:101FA4000837BD4680BD80B582B000AF78607B68DD
:101FB400002B01D1012341E07B6893F83D30DBB273
:101FC400002B06D17B68002283F83C20786800F05F
:101FD40039F87B68022283F83D207B681A687B68A5
:101FE40004331946104600F0E7FB7B68012283F8AE
:101FF40046207B68012283F83E207B68012283F817
:102004003F207B68012283F840207B68012283F80B
:1020140041207B68012283F842207B68012283F8F7
:1020240043207B68012283F844207B68012283F8E3
:1020340045207B68012283F83D2000231846083799
:10204400BD4680BD80B483B000AF786000BF0C375C
:10205400BD465DF8047B704780B584B000AF7860FE
:1020640039603B68002B09D17B6893F83E30DBB2C2
:10207400012B14BF01230023DBB222E03B68042BB5
:1020840009D17B6893F83F30DBB2012B14BF0123E5
:102094000023DBB215E03B68082B09D17B6893F879
:1020A4004030DBB2012B14BF01230023DBB208E074
:1020B4007B6893F84130DBB2012B14BF012300236A
:1020C400DBB2002B01D001237CE03B68002B04D160
:1020D4007B68022283F83E2013E03B68042B04D182
:1020E4007B68022283F83F200BE03B68082B04D175
:1020F4007B68022283F8402003E07B68022283F895
:1021040041207B681B6801223968184600F0B4FE40
:102114007B681B682D4A934204D07B681B682C4A59
:10212400934201D1012300E00023002B07D07B68F8
:102134001B685A6C7B681B6842F400425A647B68D3
:102144001B68224A934222D07B681B68B3F1804FFC
:102154001DD07B681B681F4A934218D07B681B689C
:102164001D4A934213D07B681B681C4A93420ED0CD
:102174007B681B68164A934209D07B681B68184A1F
:10218400934204D07B681B68164A934211D17B6842
:102194001B689B6803F00703FB60FB68062B10D0E9
:1021A4007B681B681A687B681B6842F001021A602E
:1021B40007E07B681B681A687B681B6842F00102B1
:1021C4001A60002318461037BD4680BD0000014048
:1021D400000401400004004000080040000C0040DE
:1021E400004001400018004080B582B000AF786024
:1021F4007B68002B01D1012341E07B6893F83D30DB
:10220400DBB2002B06D17B68002283F83C2078687F
:10221400FEF774FC7B68022283F83D207B681A6811
:102224007B6804331946104600F0C6FA7B68012225
:1022340083F846207B68012283F83E207B680122D4
:1022440083F83F207B68012283F840207B680122C9
:1022540083F841207B68012283F842207B680122B5
:1022640083F843207B68012283F844207B680122A1
:1022740083F845207B68012283F83D20002318461B
:102284000837BD4680BD000080B584B000AF7860DB
:1022940039603B68002B09D17B6893F83E30DBB290
:1022A400012B14BF01230023DBB222E03B68042B83
:1022B40009D17B6893F83F30DBB2012B14BF0123B3
:1022C4000023DBB215E03B68082B09D17B6893F847
:1022D4004030DBB2012B14BF01230023DBB208E042
:1022E4007B6893F84130DBB2012B14BF0123002338
:1022F400DBB2002B01D001237CE03B68002B04D12E
:102304007B68022283F83E2013E03B68042B04D14F
:102314007B68022283F83F200BE03B68082B04D142
:102324007B68022283F8402003E07B68022283F862
:1023340041207B681B6801223968184600F09CFD27
:102344007B681B682D4A934204D07B681B682C4A27
:10235400934201D1012300E00023002B07D07B68C6
:102364001B685A6C7B681B6842F400425A647B68A1
:102374001B68224A934222D07B681B68B3F1804FCA
:102384001DD07B681B681F4A934218D07B681B686A
:102394001D4A934213D07B681B681C4A93420ED09B
:1023A4007B681B68164A934209D07B681B68184AED
:1023B400934204D07B681B68164A934211D17B6810
:1023C4001B689B6803F00703FB60FB68062B10D0B7
:1023D4007B681B681A687B681B6842F001021A60FC
:1023E40007E07B681B681A687B681B6842F001027F
:1023F4001A60002318461037BD4680BD0000014016
:10240400000401400004004000080040000C0040AB
:10241400004001400018004080B582B000AF7860F1
:1024240039607B681B6800223968184600F024FD77
:102434007B681B682E4A934204D07B681B682D4A34
:10244400934201D1012300E00023002B17D07B68C5
:102454001B681A6A41F211131340002B0FD17B68D9
:102464001B681A6A40F244431340002B07D17B686F
:102474001B685A6C7B681B6822F400425A647B68B0
:102484001B681A6A41F211131340002B0FD17B68A9
:102494001B681A6A40F244431340002B07D17B683F
:1024A4001B681A687B681B6822F001021A603B688B
:1024B400002B04D17B68012283F83E2013E03B68A3
:1024C400042B04D17B68012283F83F200BE03B6896
:1024D400082B04D17B68012283F8402003E07B6849
:1024E400012283F84120002318460837BD4680BDE9
:1024F400000001400004014080B586B000AFF860E0
:10250400B9607A600023FB75FB6893F83C30012BBB
:1025140001D1022348E0FB68012283F83C207B6858
:102524000C2B39D801A252F823F000BF652500080E
:102534009D2500089D2500089D2500087325000899
:102544009D2500089D2500089D250008812500087B
:102554009D2500089D2500089D2500088F2500085D
:10256400FB681B68B968184600F0C6F917E0FB68F9
:102574001B68B968184600F02FFA10E0FB681B6866
:10258400B968184600F09EFA09E0FB681B68B96850
:10259400184600F00BFB02E00123FB7500BFFB684B
:1025A400002283F83C20FB7D18461837BD4680BDC9
:1025B40080B586B000AFF860B9607A600023FB751F
:1025C400FB6893F83C30012B01D10223AEE0FB6899
:1025D400012283F83C207B680C2B00F29F8001A22F
:1025E40052F823F01D26000821270008212700089F
:1025F400212700085D26000821270008212700085C
:10260400212700089F260008212700082127000809
:1026140021270008DF260008FB681B68B9681846F4
:1026240000F06AF9FB681B689A69FB681B6842F052
:1026340008029A61FB681B689A69FB681B6822F0B0
:1026440004029A61FB681B689969BB681A69FB6894
:102654001B680A439A6164E0FB681B68B968184602
:1026640000F0BAF9FB681B689A69FB681B6842F4BE
:1026740000629A61FB681B689A69FB681B6822F414
:1026840080629A61FB681B689969BB681B691A02BE
:10269400FB681B680A439A6143E0FB681B68B968DE
:1026A400184600F00FFAFB681B68DA69FB681B68C0
:1026B40042F00802DA61FB681B68DA69FB681B6890
:1026C40022F00402DA61FB681B68D969BB681A69E5
:1026D400FB681B680A43DA6123E0FB681B68B9687E
:1026E400184600F063FAFB681B68DA69FB681B682C
:1026F40042F40062DA61FB681B68DA69FB681B68F4
:1027040022F48062DA61FB681B68D969BB681B69C3
:102714001A02FB681B680A43DA6102E00123FB75B5
:1027240000BFFB68002283F83C20FB7D1846183765
:10273400BD4680BD80B582B000AF786039607B68EB
:1027440093F83C30012B01D1022331E07B68012254
:1027540083F83C207B68022283F83D20396878683E
:1027640000F07AFA0346002B09D07B68012283F833
:102774003D207B68002283F83C20012318E07B681D
:102784001B68DA687B681B6822F04002DA607B68A9
:102794001B68DA687B681B6822F48042DA607B6815
:1027A400012283F83D207B68002283F83C2000232B
:1027B40018460837BD4680BD80B485B000AF786048
:1027C40039607B681B68FB607B68404A934213D086
:1027D4007B68B3F1804F0FD07B683D4A93420BD0A6
:1027E4007B683C4A934207D07B683B4A934203D0C0
:1027F4007B683A4A934208D1FB6823F07003FB607C
:102804003B685B68FA681343FB607B682F4A93421A
:102814002BD07B68B3F1804F27D07B682C4A93423E
:1028240023D07B682B4A93421FD07B682A4A934269
:102834001BD07B68294A934217D07B68284A93426D
:1028440013D07B68274A93420FD07B68264A934271
:102854000BD07B68254A934207D07B68244A934275
:1028640003D07B68234A934208D1FB6823F4407366
:10287400FB603B68DB68FA681343FB60FB6823F08A
:1028840080023B685B691343FB607B68FA681A60EB
:102894003B689A687B68DA623B681A687B689A626C
:1028A4007B680A4A934203D07B680C4A934203D163
:1028B4003B681A697B681A637B6801225A6100BF0E
:1028C4001437BD465DF8047B704700BF000001402B
:1028D4000004004000080040000C004000040140D7
:1028E40000400140004401400048014000180040FD
:1028F400001C00400020004080B487B000AF786026
:1029040039607B681B6A23F001027B681A627B686A
:102914001B6A7B617B685B683B617B689B69FB60CE
:10292400FB6823F07003FB60FB6823F00303FB6088
:102934003B681B68FA681343FB607B6923F002035E
:102944007B613B689B687A6913437B617B68204A9F
:10295400934203D07B681F4A93420CD17B6923F0D6
:1029640008037B613B68DB687A6913437B617B699D
:1029740023F004037B617B68154A934203D07B6890
:10298400144A934211D13B6923F480733B613B6940
:1029940023F400733B613B685B693A6913433B6111
:1029A4003B689B693A6913433B617B683A695A60A7
:1029B4007B68FA689A613B685A687B685A637B68EB
:1029C4007A691A6200BF1C37BD465DF8047B704704
:1029D400000001400004014080B487B000AF78607B
:1029E40039607B681B6A23F010027B681A627B687B
:1029F4001B6A7B617B685B683B617B689B69FB60EE
:102A0400FB6823F4E043FB60FB6823F44073FB6042
:102A14003B681B681B02FA681343FB607B6923F065
:102A240020037B613B689B681B017A6913437B61CC
:102A34007B68224A934203D07B68214A93420DD19A
:102A44007B6923F080037B613B68DB681B017A6947
:102A540013437B617B6923F040037B617B68174AE6
:102A6400934203D07B68164A934213D13B6923F403
:102A740080633B613B6923F400633B613B685B69B2
:102A84009B003A6913433B613B689B699B003A692D
:102A940013433B617B683A695A607B68FA689A61C0
:102AA4003B685A687B689A637B687A691A6200BFDC
:102AB4001C37BD465DF8047B704700BF0000014031
:102AC4000004014080B487B000AF786039607B684F
:102AD4001B6A23F480727B681A627B681B6A7B61C1
:102AE4007B685B683B617B68DB69FB60FB6823F0A8
:102AF4007003FB60FB6823F00303FB603B681B6807
:102B0400FA681343FB607B6923F400737B613B68C1
:102B14009B681B027A6913437B617B68214A934259
:102B240003D07B68204A93420DD17B6923F4006370
:102B34007B613B68DB681B027A6913437B617B69B9
:102B440023F480637B617B68164A934203D07B68DD
:102B5400154A934213D13B6923F480533B613B698B
:102B640023F400533B613B685B691B013A691343DF
:102B74003B613B689B691B013A6913433B617B687A
:102B84003A695A607B68FA68DA613B685A687B681C
:102B9400DA637B687A691A6200BF1C37BD465DF848
:102BA400047B7047000001400004014080B487B0FA
:102BB40000AF786039607B681B6A23F480527B68BD
:102BC4001A627B681B6A3B617B685B687B617B681C
:102BD400DB69FB60FB6823F4E043FB60FB6823F4E0
:102BE4004073FB603B681B681B02FA681343FB607D
:102BF4003B6923F400533B613B689B681B033A69C0
:102C040013433B617B68124A934203D07B68114AA9
:102C1400934209D17B6923F480437B613B685B6900
:102C24009B017A6913437B617B687A695A607B688C
:102C3400FA68DA613B685A687B681A647B683A69A7
:102C44001A6200BF1C37BD465DF8047B704700BFA5
:102C5400000001400004014080B586B000AF7860F8
:102C640039600023FB757B681B689B683B613B698B
:102C740023F070033B613B685B683A6913433B6133
:102C84003B6923F007033B613B681B683A691343C4
:102C94003B617B681B683A699A603B685B68702B90
:102CA4001AD0702B60D8602B54D0602B5CD8502B7A
:102CB40046D0502B58D8402B19D0402B54D8302B09
:102CC40055D0302B50D8202B51D0202B4CD8002B52
:102CD4004DD0102B4BD047E07B6818683B68D9680F
:102CE4003B689A683B681B6900F0A6F840E03B68C3
:102CF4001B68052B01D101233BE07B681B681B6A21
:102D0400FB607B681B681A6A7B681B6822F00102FF
:102D14001A627B681B689B69BB60BB6823F0F00385
:102D2400BB603B681B691B01BA681343BB607B68CB
:102D34001B68BA689A617B681B68FA681A6217E0B4
:102D44007B6818683B6899683B681B691A4600F001
:102D540014F80DE07B6818683B6899683B681B6948
:102D64001A4600F039F803E00123FB7500E000BFC8
:102D7400FB7D18461837BD4680BD80B487B000AFD0
:102D8400F860B9607A60FB681B6A7B61FB681B6A48
:102D940023F00102FB681A62FB689B693B613B6993
:102DA40023F0F0033B617B681B013A6913433B61E9
:102DB4007B6923F00A037B617A69BB6813437B61F7
:102DC400FB683A699A61FB687A691A6200BF1C372A
:102DD400BD465DF8047B704780B487B000AFF860EF
:102DE400B9607A60FB681B6A23F01002FB681A6200
:102DF400FB689B697B61FB681B6A3B617B6923F40D
:102E040070437B617B681B037A6913437B613B6975
:102E140023F0A0033B61BB681B013A6913433B6188
:102E2400FB687A699A61FB683A691A6200BF1C37C9
:102E3400BD465DF8047B704780B487B000AFF8608E
:102E4400B9607A603B60FB689B687B617B6923F4B3
:102E54007F437B613B681A027B681A43BB68134358
:102E64007A6913437B61FB687A699A6000BF1C37F7
:102E7400BD465DF8047B704780B487B000AFF8604E
:102E8400B9607A60BB6803F01F03012202FA03F3FE
:102E94007B61FB681A6A7B69DB431A40FB681A6230
:102EA400FB681A6ABB6803F01F03796801FA03F32D
:102EB4001A43FB681A6200BF1C37BD465DF8047BE9
:102EC4007047000080B485B000AF786039607B68DB
:102ED40093F83C30012B01D102235AE07B68012294
:102EE40083F83C207B68022283F83D207B681B68C2
:102EF4005B68FB607B681B689B68BB60FB6823F0B6
:102F04007003FB603B681B68FA681343FB607B68D3
:102F14001B68FA685A607B681B68214A934222D076
:102F24007B681B68B3F1804F1DD07B681B681D4A0A
:102F3400934218D07B681B681B4A934213D07B686A
:102F44001B681A4A93420ED07B681B68184A934246
:102F540009D07B681B68174A934204D07B681B68BE
:102F6400154A93420CD1BB6823F08003BB603B68D5
:102F74005B68BA681343BB607B681B68BA689A6075
:102F84007B68012283F83D207B68002283F83C2083
:102F9400002318461437BD465DF8047B704700BF14
:102FA400000001400004004000080040000C004004
:102FB40000040140004001400018004080B485B086
:102FC40000AF786039600023FB607B6893F83C3085
:102FD400012B01D102233DE07B68012283F83C20D0
:102FE400FB6823F0FF023B68DB681343FB60FB686C
:102FF40023F440723B689B681343FB60FB6823F433
:1030040080623B685B681343FB60FB6823F40062E7
:103014003B681B681343FB60FB6823F480523B68E6
:103024001B691343FB60FB6823F400523B685B6934
:103034001343FB60FB6823F480423B68DB69134362
:10304400FB607B681B68FA685A647B68002283F81B
:103054003C20002318461437BD465DF8047B7047B6
:1030640070B50D4D0D4C641BA4100026A64209D169
:103074000B4D0C4C00F020F8641BA4100026A64253
:1030840005D170BD55F8043B98470136EEE755F875
:10309400043B98470136F2E7EC300008EC300008B6
:1030A400EC300008F030000802440346934200D19B
:1030B400704703F8011BF9E7F8B500BFF8BC08BC7A
:1030C4009E467047F8B500BFF8BC08BC9E467047E2
:1030D40000000000000000000102030406070809C4
:0830E40050D1FF7F0100000044
:0430EC00E9010008EE
:0430F000C50100080E
:0C30F4000024F4001000000001000000A7
:0400000508000D31B1
:00000001FF
