:020000040800F2
:100000000028002039050008210500082305000804
:100010002505000827050008290500080000000044
:100020000000000000000000000000002B05000898
:100030002D050008000000002F050008310500080C
:100040008105000881050008810500088105000878
:100050008105000881050008810500088105000868
:100060008105000881050008810500088105000858
:100070008105000881050008810500088105000848
:100080008105000881050008810500088105000838
:100090008105000881050008810500088105000828
:1000A0008105000881050008810500088105000818
:1000B0008105000881050008000000008105000896
:1000C0008105000800000000000000008105000814
:1000D0000000000081050008810500080000000004
:1000E0008105000881050008810500080000000066
:1000F0000000000000000000000000000000000000
:0C01000000000000000000005FF808F1A3
:10010C0010B5054C237833B9044B13B10448AFF345
:10011C0000800123237010BD0C00002000000000A3
:10012C00C80E000808B5034B1BB103490348AFF3D5
:10013C00008008BD0000000010000020C80E000860
:10014C00013810B50C46032808D8DFE800F002107F
:10015C001316012211463F4800F096FB092C77D864
:10016C00DFE804F00E1C26303A444E58626C012233
:10017C000221F0E701220421EDE701220821EAE740
:10018C0001224FF4FC71344800F07EFB00224FF446
:10019C00C061BDE81040304800F076BB01224FF43E
:1001AC00A0712D4800F070FB00224FF4D761F0E7EE
:1001BC0001224FF47871284800F066FB00224FF4BE
:1001CC008361E6E701224FF43C71234800F05CFBAD
:1001DC0000224FF4A161DCE701224FF432711E487A
:1001EC0000F052FB00224FF4A661D2E701224FF43B
:1001FC005C71194800F048FB00224FF49161C8E78C
:10020C0001224FF47C71144800F03EFB00224FF4A5
:10021C008161BEE701224FF49C710F4800F034FB62
:10022C0000224FF4D861B4E701224FF47E710A48E2
:10023C0000F02AFB00224FF48061AAE701224FF460
:10024C005E71054800F020FB00224FF49061A0E79E
:10025C0010BD00BF00080140000C0140F8B5224E53
:10026C000546002230460F2100F00EFB4FF47A7148
:10027C00012095FBF1F1FFF763FF012000F0C4F9B9
:10028C00002230460F2100F0FFFA64230A2495FB6C
:10029C00F3F393FBF4F1022004FB1131FFF750FF51
:1002AC00012000F0B1F9002230460F2100F0ECFAE9
:1002BC0095FBF4F797FBF4F1032004FB1171FFF7A6
:1002CC003FFF012000F0A0F9304600220F2100F082
:1002DC00DBFA042004FB1751FFF732FFBDE8F840AE
:1002EC00012000F091B900BF0008014000B591B0A9
:1002FC002422002107A800F0D9FD1422002101A816
:10030C0000F0D4FD022301210693102306A8CDE9A9
:10031C000A1300F0BFFA014608B172B6FEE70F23CC
:10032C00CDE90300CDE90130059001A800F074FC83
:10033C0008B172B6FEE711B05DF804FB80B501257B
:10034C000F274FF003084FF4FF66434C8EB000F0BC
:10035C0037F9A369414843F00403A361A36906A9D3
:10036C0003F004030193019BA36943F00803A36109
:10037C00A369CDE9067503F008030293029BCDF83F
:10038C00248000F0ABF9364806A9CDE90665CDF816
:10039C00248000F0A3F9FFF7A9FF102200210AA87E
:1003AC0000F084FDA369394643F02003A361A369DF
:1003BC00002203F020030393039BA369274843F017
:1003CC000403A361A36903F004030493049BA369CE
:1003DC0043F00803A361A369002403F00803059309
:1003EC00059B00F051FA002231461D4800F04CFAF2
:1003FC00CDE90A75022719480AA9CDE90C4700F086
:10040C006DF917480AA9CDE90A65CDE90C4700F04A
:10041C0065F94FF4E1331348134AC0E90244C0E9CB
:10042C0000230C230461C0E90534C46100F0EAFC2C
:10043C0008B172B6FEE741F66160FFF70FFF4FF4AB
:10044C007A7000F0E1F841F22E60FFF707FF4FF4ED
:10045C007A7000F0D9F8EEE7001002400008014075
:10046C00000C014028000020003801400A4B82B0EB
:10047C009A6942F001029A619A6902F001020092B3
:10048C00009ADA6942F08052DA61DB6903F080533A
:10049C000193019B02B070470010024010B5044656
:1004AC0086B01022002102A800F000FD2268174B34
:1004BC009A4228D103F558439A69154842F4804270
:1004CC009A619A6902A902F480420092009A9A6990
:1004DC0042F004029A619B694FF4007203F004032A
:1004EC000193019B0223CDE902230323059300F022
:1004FC00F5F84FF4806100230548CDE9021302A9F9
:10050C00049300F0EBF806B010BD00BF00380140BA
:10051C0000080140FEE7FEE7FEE7FEE7FEE7704756
:10052C007047704700F05EB870470000FFF7FCFFA3
:10053C000B480C490C4A002302E0D458C450043335
:10054C00C4188C42F9D3094A094C002301E013600A
:10055C000432A242FBD300F085FCFFF7EFFE70479C
:10056C00000000200C000020140F00080C000020DC
:10057C0074000020FEE7000038B50E4B05461878D5
:10058C004FF47A73B3FBF0F30B4A1068B0FBF3F043
:10059C0000F090F8044658B90F2D09D802462946A8
:1005AC004FF0FF3000F054F82046044B1D6038BD6E
:1005BC000120FCE7040000200000002008000020BF
:1005CC00074A08B51368032043F01003136000F0CA
:1005DC002DF80F20FFF7D0FFFFF748FF002008BDD4
:1005EC0000200240034A044B11681B780B44136033
:1005FC00704700BF7000002004000020014B1868F9
:10060C00704700BF7000002038B50446FFF7F6FFB6
:10061C000546631C1EBF044B1B78E418FFF7EEFF66
:10062C00431BA342FAD338BD040000200749030240
:10063C00CA6803F4E06322F4E0621204120C134360
:10064C0043F0BF6343F40033CB60704700ED00E030
:10065C00164B30B5DC68C4F30224C4F10703251D26
:10066C00042B28BF0423062D4FF0FF3598BF002420
:10067C0005FA03F388BF033C21EA0303A34005FA00
:10068C0004F422EA0402002843EA0203ACBF00F19E
:10069C006040074A4FEA0313DBB2ABBF00F5614081
:1006AC0000F00F0080F80033135430BD00ED00E073
:1006BC0014ED00E00138B0F1807F0BD24FF0E02355
:1006CC00F021054A586182F8231000200722986116
:1006DC001A6170470120704700ED00E02DE9F74FDB
:1006EC0000221646614F624BDFF888C1DFF888E1C3
:1006FC000D6835FA06F402D103B0BDE8F08F4FF067
:10070C00010808FA06F805EA080438EA050577D165
:10071C004D68032D07D8013D022D00F28280DFE8E1
:10072C0005F092979D00122D00F095806AD8112D3E
:10073C0000F08B80FF2C98BF82464FF00F0988BFCA
:10074C0000F1040A4FEA8605DAF8008088BF203DE4
:10075C0009FA05FB28EA0B0802FA05F548EA050533
:10076C00CAF80050D1F804A01AF0805F48D0BD69D7
:10077C0026F0030845F00105BD61BD6908F180480C
:10078C0005F00105019508F5803806F0030B019D75
:10079C004FEA8B0BD8F8085009FA0BF925EA09092E
:1007AC00364DA8425ED005F58065A8425CD005F5B3
:1007BC008065A8420CBF0225032505FA0BF545EA16
:1007CC000905C8F808509D681AF4801F14BF25430A
:1007DC00A5439D60DD681AF4001F14BF2543A54393
:1007EC00DD605D681AF4003F14BF2543A5435D60CE
:1007FC001D681AF4803F14BF2C4325EA04041C60C6
:10080C00013675E7DFF878904D450AD015D8754557
:10081C0007D0A9F580394D4503D0A9F580194D4570
:10082C0088D18A68E2B1012A08BFC0F810804FF065
:10083C00080218BFC0F814807CE7DFF848904D45DB
:10084C00EFD06545ECE7CA6874E7CA68043271E713
:10085C00CA6808326EE7CA680C326BE7002269E797
:10086C00042267E70025A8E70125A6E7001002404F
:10087C00000401400000321000001210000801407A
:10088C0000002210000031100AB101617047090408
:10089C00FBE700002DE9F341054638B30368DB079D
:1008AC0010D42B689F075ED42B68190700F1958034
:1008BC002B685A0700F1C180E869002840F02C81B0
:1008CC00002029E0904C636803F00C03042B07D044
:1008DC00636803F00C03082B0AD16368DE0307D5A9
:1008EC0023689C03DDD56B68002BDAD1012013E063
:1008FC006B68B3F5803F12D1236843F480332360D7
:10090C00FFF77CFE064623689803CAD4FFF776FEF1
:10091C00801B6428F7D9032002B0BDE8F0819BB995
:10092C00236823F480332360236823F4802323601B
:10093C00FFF764FE064623689903B2D5FFF75EFE07
:10094C00801B6428F7D9E6E7B3F5A02F236803D101
:10095C0043F480232360CFE723F4803323602368A0
:10096C0023F48023CBE7684C636813F00C0F07D09B
:10097C00636803F00C03082B10D16368DA030DD401
:10098C0023689B0702D52B69012BAFD123686A69B9
:10099C0023F0F80343EAC203236085E72A695B4B23
:1009AC006AB101221A60FFF729FE064623689F07E9
:1009BC00ECD4FFF723FE801B0228F7D9ABE71A60B3
:1009CC00FFF71CFE0646236898077FF56DAFFFF70F
:1009DC0015FE801B0228F6D99DE7AA694A4E4B4B9F
:1009EC00E2B10122C3F88024FFF708FE0446736AC3
:1009FC009B070DD54FF4FA52454B1B68B3FBF2F332
:100A0C00019300BF019B5A1E0192002BF9D14FE7B5
:100A1C00FFF7F4FD001B0228E9D97CE7C3F880241A
:100A2C00FFF7ECFD0446736A9F077FF541AFFFF7B4
:100A3C00E5FD001B0228F6D96DE7334CE369D800BD
:100A4C0024D40127E36943F08053E361E36903F0A5
:100A5C0080530093009B2F4E3368D90518D5EB6853
:100A6C00012B26D1236A43F001032362FFF7C6FD55
:100A7C0041F288380646236A9B073FD5002F3FF486
:100A8C001BAFE36923F08053E36115E70027E2E72E
:100A9C00336843F480733360FFF7B0FD80463368EE
:100AAC00DA05DCD4FFF7AAFDA0EB08006428F6D920
:100ABC0031E7ABB9236A41F2883823F00103236292
:100ACC00236A23F004032362FFF798FD0646236A8A
:100ADC009807D3D5FFF792FD801B4045F7D91AE74D
:100AEC00052B236A03D143F004032362BAE723F0F6
:100AFC0001032362236A23F00403B6E7FFF77EFDAC
:100B0C00801B4045B7D906E7001002400000424266
:100B1C0000000020007000402A4C636803F00C03B6
:100B2C00082B3ED00022284B02281A662CD1FFF746
:100B3C0065FD06462368990120D42B6AB3F5803FE6
:100B4C0005D16268A96822F400320A436260696ABE
:100B5C0062680B4322F474121343012263601A4B34
:100B6C001A66FFF74BFD054623689A013FF5A8AEC0
:100B7C00FFF744FD401B0228F6D9CCE6FFF73EFDFB
:100B8C00801B0228D6D9C6E6FFF738FD0546236838
:100B9C009B017FF595AEFFF731FD401B0228F6D97E
:100BAC00B9E601283FF4B8AE63682A6A03F48031D1
:100BBC0091427FF49BAE6A6A03F4701393423FF444
:100BCC007FAE93E600100240000042420D4A53688B
:100BDC0003F00C01082912D10B48C3F38341DB034A
:100BEC00405C09D55368094AC3F340435043084A53
:100BFC00D35CB0FBF3F07047064B58437047034887
:100C0C00704700BF00100240F80E000800127A0076
:100C1C00080F000800093D002DE9F0410D4604467F
:100C2C0010B90120BDE8F081444A136803F00703B2
:100C3C008B4228D321688E0730D4CA0743D43F4A4D
:100C4C00136803F00703AB4265D822683C4D12F0E1
:100C5C00040F6CD1130706D56B68226923F460531B
:100C6C0043EAC2036B60FFF7B1FF6B68354AC3F30D
:100C7C000313D35CD840344B1860344B1868FFF71F
:100C8C007BFC0020CEE7136823F007030B431360B3
:100C9C00136803F007038B42C3D1CBE7284B11F049
:100CAC00040F1EBF5A6842F4E0625A60080742BF44
:100CBC005A6842F460525A605A68A06822F0F002F6
:100CCC0002435A60B9E762681D4E012A33681AD193
:100CDC0013F4003FA5D0736841F2883823F0030366
:100CEC0013437360FFF78AFC07467368626803F06E
:100CFC000C03B3EB820FA2D0FFF780FCC01B404566
:100D0C00F3D903208EE7022A02D113F0007FE1E72A
:100D1C0013F0020FDEE7136823F007032B43136075
:100D2C00136803F00703AB427FF47BAF8DE76B686E
:100D3C00E16823F4E0630B436B608BE70020024017
:100D4C0000100240E00E0008000000200800002007
:100D5C00044B054A5B68C3F30223D35C034A106857
:100D6C00D840704700100240F00E00080000002030
:100D7C00044B054A5B68C3F3C223D35C034A106877
:100D8C00D840704700100240F00E00080000002010
:100D9C0010B504460368C1681A6922F440520A432C
:100DAC001A6182680069D9680243606921F4B05104
:100DBC0021F00C0102430A43DA605A69A16922F45A
:100DCC0040720A435A610E4A934215D1FFF7D0FF85
:100DDC0019234343626820689200B3FBF2F3642248
:100DEC00B3FBF2F102FB11331B013233B3FBF2F311
:100DFC0003EB0113836010BDFFF7AAFFE8E700BF08
:100E0C000038014010B5044648B390F8413003F067
:100E1C00FF021BB980F84020FFF740FB2423226817
:100E2C0084F84130D368204623F40053D360FFF795
:100E3C00AFFF236800201A6922F490421A615A69A4
:100E4C0022F02A025A61DA6842F40052DA60202356
:100E5C00606484F8413084F84230606310BD012036
:100E6C00FCE7000070B500260C4D0D4C641BA41063
:100E7C00A64209D100F022F800260A4D0A4C641B48
:100E8C00A410A64205D170BD55F8043B9847013615
:100E9C00EEE755F8043B98470136F2E70C0F0008D3
:100EAC000C0F00080C0F0008100F0008034602443A
:100EBC00934200D1704703F8011BF9E7F8B500BF66
:100ECC00F8BC08BC9E467047F8B500BFF8BC08BC1F
:040EDC009E46704777
:100EE00000000000000000000102030406070809DA
:100EF00000000000010203040203040506070809BC
:0C0F00000A0B0C0D0E0F10100102000077
:040F0C0031010008A7
:040F10000D010008C7
:0C0F14000024F4000100000010000000A8
:0400000508000539B1
:00000001FF
