:020000040800F2
:1000000000000220B10C0008390C00083F0C000869
:10001000450C00084B0C0008510C000800000000C3
:10002000000000000000000000000000570C000865
:10003000650C000800000000730C0008810C00082B
:10004000010D0008010D0008010D0008010D000858
:10005000010D0008010D0008010D0008010D000848
:10006000010D0008010D0008010D0008010D000838
:10007000010D0008010D0008010D0008010D000828
:10008000010D0008010D0008010D0008010D000818
:10009000010D0008010D0008010D0008010D000808
:1000A000010D0008010D0008010D0008010D0008F8
:1000B000010D0008010D0008010D0008010D0008E8
:1000C000010D0008010D0008010D0008010D0008D8
:1000D000010D0008010D0008010D0008010D0008C8
:1000E000010D0008010D0008010D0008010D0008B8
:1000F000010D0008010D0008010D0008010D0008A8
:10010000010D0008010D0008010D0008010D000897
:10011000010D0008010D0008010D0008010D000887
:10012000010D0008010D0008010D0008010D000877
:10013000010D00080000000000000000010D000893
:10014000010D0008010D0008010D0008010D000857
:10015000010D0008010D0008010D0008010D000847
:10016000010D0008010D0008010D0008010D000837
:10017000010D0008010D0008010D0008000000003D
:1001800000000000010D0008000000000000000059
:10019000010D00080000000000000000010D000833
:1001A000000000000000000000000000010D000839
:1001B000010D0008010D0008010D0008010D0008E7
:0401C000010D000825
:1001C40010B5054C237833B9044B13B10448AFF38D
:1001D40000800123237010BD0C00002000000000EB
:1001E400782F000808B5034B1BB103490348AFF34C
:1001F400008008BD0000000010000020782F0008D7
:1002040053B94AB9002908BF00281CBF4FF0FF3179
:100214004FF0FF3000F074B9ADF1080C6DE904CE75
:1002240000F006F8DDF804E0DDE9022304B07047CD
:100234002DE9F047089D04468E46002B4DD18A4295
:10024400944669D9B2FA82F252B101FA02F3C2F1C8
:10025400200120FA01F10CFA02FC41EA030E944059
:100264004FEA1C48210CBEFBF8F61FFA8CF708FB7A
:1002740016E341EA034306FB07F199420AD91CEB52
:10028400030306F1FF3080F01F81994240F21C8184
:10029400023E63445B1AA4B2B3FBF8F008FB1033CC
:1002A40044EA034400FB07F7A7420AD91CEB040401
:1002B40000F1FF3380F00A81A74240F207816444D1
:1002C400023840EA0640E41B00261DB1D440002356
:1002D400C5E900433146BDE8F0878B4209D9002DBA
:1002E40000F0EF800026C5E9000130463146BDE844
:1002F400F087B3FA83F6002E4AD18B4202D38242AE
:1003040000F2F980841A61EB030301209E46002D5C
:10031400E0D0C5E9004EDDE702B9FFDEB2FA82F2B1
:10032400002A40F09280A1EB0C014FEA1C471FFA0F
:100334008CFE0126200CB1FBF7F307FB131140EAF6
:1003440001410EFB03F0884208D91CEB010103F1C3
:10035400FF3802D2884200F2CB804346091AA4B285
:10036400B1FBF7F007FB101144EA01440EFB00FE59
:10037400A64508D91CEB040400F1FF3102D2A645BE
:1003840000F2BB800846A4EB0E0440EA03409CE75D
:10039400C6F12007B34022FA07FC4CEA030C20FA0A
:1003A40007F401FA06F31C43F9404FEA1C4900FA2A
:1003B40006F3B1FBF9F8200C1FFA8CFE09FB1811A7
:1003C40040EA014108FB0EF0884202FA06F20BD91A
:1003D4001CEB010108F1FF3A80F08880884240F26A
:1003E4008580A8F102086144091AA4B2B1FBF9F0AE
:1003F40009FB101144EA014100FB0EFE8E4508D9A9
:100404001CEB010100F1FF346CD28E456AD902382D
:10041400614440EA0840A0FB0294A1EB0E01A14212
:10042400C846A64656D353D05DB1B3EB080261EB80
:100434000E0101FA07F722FA06F3F1401F43C5E95A
:10044400007100263146BDE8F087C2F12003D84090
:100454000CFA02FC21FA03F3914001434FEA1C47D2
:100464001FFA8CFEB3FBF7F007FB10360B0C43EAC4
:10047400064300FB0EF69E4204FA02F408D91CEB74
:10048400030300F1FF382FD29E422DD90238634472
:100494009B1B89B2B3FBF7F607FB163341EA034112
:1004A40006FB0EF38B4208D91CEB010106F1FF3861
:1004B40016D28B4214D9023E6144C91A46EA004658
:1004C40038E72E46284605E70646E3E61846F8E6EA
:1004D4004B45A9D2B9EB020864EB0C0E0138A3E733
:1004E4004646EAE7204694E74046D1E7D0467BE714
:1004F400023B614432E7304609E76444023842E78C
:10050400704700BF80B500AF00F0FAFB00F05EF862
:1005140000F064FA00F0BAF800F056F900F0E4F9DB
:100524000021274801F02CFD0346002B01D000F0E8
:10053400A9FA0021234801F023FD0346002B01D032
:1005440000F0A0FA0021204801F01AFD0346002B18
:1005540001D000F097FA1C4B1B684FF47A625A637F
:10056400174B1B684FF47A625A63164B1B684FF49F
:100574007A629A630021124801F002FD4FF4FA7086
:1005840000F030FC00210E4801F0C2FD00210E48AD
:1005940001F0F6FC4FF4FA7000F024FC00210A4844
:1005A40001F0B6FD0021074801F0EAFC4FF4FA70AF
:1005B40000F018FC0021034801F0AAFDCBE700BFBE
:1005C40070000020B80000202800002080B594B0FE
:1005D40000AF07F11C0334220021184602F0C2FCCC
:1005E40007F1080300221A605A609A60DA601A61FF
:1005F40000237B60234B1B6C224A43F0805313641B
:10060400204B1B6C03F080537B607B6800233B60B2
:100614001D4B1B6823F440431B4A43F4804313607F
:10062400194B1B6803F440433B603B680223FB61A6
:100634000123BB621023FB6200237B6307F11C03CD
:10064400184601F0FDF80346002B01D000F01AFA19
:100654000F23BB600023FB6000233B6100237B610D
:100664000023BB6107F108030021184600F058FE7F
:100674000346002B01D000F005FA00BF5037BD46F9
:1006840080BD00BF003802400070004080B596B0C5
:1006940000AF07F1480300221A605A609A60DA60DA
:1006A40007F1400300221A605A6007F12403002274
:1006B4001A605A609A60DA601A615A619A613B1D45
:1006C40020220021184602F04DFC3D4B3D4A1A60A1
:1006D4003B4B59225A603A4B00229A60384B42F203
:1006E4000F72DA60364B00221A61354B00225A61D0
:1006F400334B00229A61324801F040FB0346002B41
:1007040001D000F0BFF94FF48053BB6407F14803F4
:1007140019462B4801F08AFE0346002B01D000F055
:10072400B1F9274801F079FB0346002B01D000F012
:10073400A9F950233B6400237B6407F14003194665
:100744001F4802F01DFB0346002B01D000F09AF96C
:1007540000237B620023BB620023FB6200233B6314
:1007640000237B630023BB630023FB6307F12403A3
:1007740000221946124801F03BFD0346002B01D02C
:1007840000F080F900237B600023BB600023FB6042
:1007940000233B6100237B614FF40053BB610023C2
:1007A4003B623B1D1946064802F066FB0346002BDC
:1007B40001D000F067F900BF5837BD4680BD00BFC7
:1007C400280000200000014080B58EB000AF07F182
:1007D400240300221A605A609A60DA601A6107F1F1
:1007E4001C0300221A605A603B4600221A605A60B9
:1007F4009A60DA601A615A619A613A4B4FF080420A
:100804001A60384B59225A60364B00229A60354B95
:1008140042F20F72DA60334B00221A61314B00222C
:100824009A61304801F0AAFA0346002B01D000F087
:1008340029F92C4801F04AFB0346002B01D000F0B3
:1008440021F9284801F0E9FA0346002B01D000F011
:1008540019F906237B620023BB6207F124031946BE
:10086400204801F0AAFE0346002B01D000F00AF94B
:100874005023FB6100233B6207F11C03194619480E
:1008840002F07EFA0346002B01D000F0FBF860234F
:100894003B604FF47A637B600023BB6000233B61C1
:1008A4003B46002219460F4801F0FEFC0346002B8C
:1008B40001D000F0E7F810233B6040F605537B605D
:1008C4003B4604221946074801F092FC0346002BDC
:1008D40001D000F0D7F8034800F04EF900BF3837D4
:1008E400BD4680BD7000002080B58EB000AF07F11A
:1008F400240300221A605A609A60DA601A6107F1D0
:100904001C0300221A605A603B4600221A605A6097
:100914009A60DA601A615A619A612E4B2E4A1A6003
:100924002C4B59225A602B4B00229A60294B42F2DD
:100934000F72DA60274B00221A61264B00229A615B
:10094400244801F01BFA0346002B01D000F09AF86A
:10095400204801F0BBFA0346002B01D000F092F8C6
:1009640006237B621023BB6207F12403194619484E
:1009740001F023FE0346002B01D000F083F800238E
:10098400FB6100233B6207F11C031946114802F086
:10099400F7F90346002B01D000F074F860233B60A4
:1009A4004FF47A637B600023BB6000233B613B46CA
:1009B40000221946074801F077FC0346002B01D0BA
:1009C40000F060F8034800F0D7F800BF3837BD46A0
:1009D40080BD00BFB80000200004004080B588B08E
:1009E40000AF07F10C0300221A605A609A60DA60C3
:1009F4001A610023BB60214B1B6B204A43F00803A0
:100A040013631E4B1B6B03F00803BB60BB6800231E
:100A14007B601A4B1B6B194A43F001031363174B9A
:100A24001B6B03F001037B607B680123FB600223E3
:100A34003B610023BB6107F10C031946104800F029
:100A4400DBFA4023FB6002233B610023BB6107F117
:100A54000C0319460A4800F0CFFA4FF48073FB6088
:100A640002233B610023BB6107F10C0319460448D0
:100A740000F0C2FA00BF2037BD4680BD00380240F6
:100A84000000024080B400AF72B600BFFEE7000071
:100A940080B483B000AF00237B60104B5B6C0F4AC3
:100AA40043F4804353640D4B5B6C03F480437B60DD
:100AB4007B6800233B60094B1B6C084A43F080535E
:100AC4001364064B1B6C03F080533B603B6800BF10
:100AD4000C37BD465DF8047B704700BF0038024008
:100AE40080B487B000AF78607B681B681F4A93426C
:100AF4000ED100237B611E4B5B6C1D4A43F0010346
:100B040053641B4B5B6C03F001037B617B6926E040
:100B14007B681B68B3F1804F0ED100233B61144BFB
:100B24001B6C134A43F001031364114B1B6C03F059
:100B340001033B613B6912E07B681B680D4A9342E9
:100B44000DD10023FB600A4B1B6C094A43F00203DE
:100B54001364074B1B6C03F00203FB60FB6800BFCC
:100B64001C37BD465DF8047B704700BF00000140A0
:100B7400003802400004004080B58AB000AF7860BD
:100B840007F1140300221A605A609A60DA601A614D
:100B94007B681B68B3F1804F1ED100233B61224B5D
:100BA4001B6B214A43F0010313631F4B1B6B03F0C0
:100BB40001033B613B6901237B610223BB61002389
:100BC400FB6100233B6201237B6207F11403194696
:100BD400164800F011FA22E07B681B68144A93421D
:100BE4001DD10023FB60104B1B6B0F4A43F0010324
:100BF40013630D4B1B6B03F00103FB60FB68402385
:100C04007B610223BB610023FB6100233B6202235F
:100C14007B6207F114031946044800F0EDF900BFA4
:100C24002837BD4680BD00BF0038024000000240A6
:100C34000004004080B400AFFEE780B400AFFEE7DC
:100C440080B400AFFEE780B400AFFEE780B400AF2D
:100C5400FEE780B400AF00BFBD465DF8047B70477B
:100C640080B400AF00BFBD465DF8047B704780B41C
:100C740000AF00BFBD465DF8047B704780B500AF90
:100C840000F090F800BF80BD80B400AF064BD3F8ED
:100C94008830054A43F47003C2F8883000BFBD466B
:100CA4005DF8047B704700BF00ED00E0DFF834D04E
:100CB4000D480E490E4A002302E0D458C4500433B0
:100CC400C4188C42F9D30B4A0B4C002301E0136087
:100CD4000432A242FBD3FFF7D7FF02F01FF9FFF75C
:100CE40011FC704700000220000000200C000020CE
:100CF400B02F00080C00002004010020FEE70000D3
:100D040080B500AF0E4B1B680D4A43F400731360AB
:100D14000B4B1B680A4A43F480631360084B1B683F
:100D2400074A43F480731360032000F031F90F2065
:100D340000F008F8FFF7ACFE0023184680BD00BFA2
:100D4400003C024080B582B000AF7860124B1A6854
:100D5400124B1B7819464FF47A73B3FBF1F3B2FBD1
:100D6400F3F3184600F03BF90346002B01D00123AE
:100D74000EE07B680F2B0AD8002279684FF0FF3011
:100D840000F011F9064A7B681360002300E0012398
:100D940018460837BD4680BD00000020080000202A
:100DA4000400002080B400AF064B1B781A46064BA3
:100DB4001B681344044A136000BFBD465DF8047BFE
:100DC400704700BF080000200001002080B400AF7D
:100DD400034B1B681846BD465DF8047B704700BF93
:100DE4000001002080B584B000AF7860FFF7EEFF0B
:100DF400B8607B68FB60FB68B3F1FF3F05D00A4B2A
:100E04001B781A46FB681344FB6000BFFFF7DEFF44
:100E14000246BB68D31AFA689A42F7D800BF00BFEB
:100E24001037BD4680BD00BF0800002080B485B0E7
:100E340000AF78607B6803F00703FB600C4BDB6852
:100E4400BB60BA684FF6FF031340BB60FB681A022D
:100E5400BB68134343F0BF6343F40033BB60044AED
:100E6400BB68D36000BF1437BD465DF8047B704790
:100E740000ED00E080B400AF044BDB681B0A03F014
:100E840007031846BD465DF8047B704700ED00E09B
:100E940080B483B000AF03463960FB7197F9073023
:100EA400002B0ADB3B68DAB20C4997F907301201D0
:100EB400D2B20B4483F800230AE03B68DAB2084953
:100EC400FB7903F00F03043B1201D2B20B441A76F0
:100ED40000BF0C37BD465DF8047B704700E100E0BD
:100EE40000ED00E080B489B000AFF860B9607A60CA
:100EF400FB6803F00703FB61FB69C3F10703042BE1
:100F040028BF0423BB61FB690433062B02D9FB69A8
:100F1400033B00E000237B614FF0FF32BB6902FA20
:100F240003F3DA43BB681A407B699A404FF0FF3100
:100F34007B6901FA03F3D9437B680B4013431846DA
:100F44002437BD465DF8047B7047000080B582B04D
:100F540000AF78607B68013BB3F1807F01D301234C
:100F64000FE00A4A7B68013B53600F214FF0FF30CA
:100F7400FFF78EFF054B00229A60044B07221A608C
:100F8400002318460837BD4680BD00BF10E000E0CE
:100F940080B582B000AF78607868FFF747FF00BF84
:100FA4000837BD4680BD80B586B000AF0346B96042
:100FB4007A60FB7300237B61FFF75CFF78617A68DA
:100FC400B9687869FFF78EFF024697F90F3011462A
:100FD4001846FFF75DFF00BF1837BD4680BD80B5DA
:100FE40082B000AF78607868FFF7B0FF0346184618
:100FF4000837BD4680BD000080B489B000AF78607A
:10100400396000237B6100233B610023BB61002323
:10101400FB6165E10122FB6902FA03F37B613B6832
:101024001B687A6913403B613A697B699A4240F0D4
:1010340054813B685B6803F00303012B05D03B68D4
:101044005B6803F00303022B30D17B689B68BB61B0
:10105400FB695B00032202FA03F3DB43BA69134022
:10106400BB613B68DA68FB695B0002FA03F3BA69A7
:101074001343BB617B68BA699A607B685B68BB6138
:101084000122FB6902FA03F3DB43BA691340BB6133
:101094003B685B681B0903F00102FB6902FA03F376
:1010A400BA691343BB617B68BA695A603B685B6881
:1010B40003F00303032B17D07B68DB68BB61FB6978
:1010C4005B00032202FA03F3DB43BA691340BB61FA
:1010D4003B689A68FB695B0002FA03F3BA6913433D
:1010E400BB617B68BA69DA603B685B6803F0030341
:1010F400022B23D1FB69DA087B68083253F82230CB
:10110400BB61FB6903F007039B000F2202FA03F3A0
:10111400DB43BA691340BB613B681A69FB6903F09E
:1011240007039B0002FA03F3BA691343BB61FB692B
:10113400DA087B680832B96943F822107B681B68B7
:10114400BB61FB695B00032202FA03F3DB43BA6968
:101154001340BB613B685B6803F00302FB695B00FF
:1011640002FA03F3BA691343BB617B68BA691A6074
:101174003B685B6803F44033002B00F0AE8000232F
:10118400FB605D4B5B6C5C4A43F4804353645A4B95
:101194005B6C03F48043FB60FB68584AFB699B0863
:1011A400023352F82330BB61FB6903F003039B0055
:1011B4000F2202FA03F3DB43BA691340BB617B6875
:1011C4004F4A934225D07B684E4A93421FD07B6896
:1011D4004D4A934219D07B684C4A934213D07B68A2
:1011E4004B4A93420DD07B684A4A934207D07B68AE
:1011F400494A934201D106230CE007230AE0052360
:1012040008E0042306E0032304E0022302E00123B0
:1012140000E00023FA6902F0030292009340BA69E5
:101224001343BB613549FB699B080233BA6941F832
:1012340023203A4B9B68BB613B69DB43BA6913408B
:10124400BB613B685B6803F48013002B03D0BA696D
:101254003B691343BB61314ABB6993602F4BDB6825
:10126400BB613B69DB43BA691340BB613B685B68A4
:1012740003F40013002B03D0BA693B691343BB6129
:10128400264ABB69D360254B5B68BB613B69DB4382
:10129400BA691340BB613B685B6803F40033002BFD
:1012A40003D0BA693B691343BB611C4ABB695360F1
:1012B4001A4B1B68BB613B69DB43BA691340BB61D2
:1012C4003B685B6803F48033002B03D0BA693B6945
:1012D4001343BB61114ABB691360FB690133FB61B2
:1012E400FB690F2B7FF696AE00BF00BF2437BD46C7
:1012F4005DF8047B704700BF0038024000380140AD
:10130400000002400004024000080240000C0240B9
:10131400001002400014024000180240003C01404A
:1013240080B584B000AF786039607B68002B01D150
:101334000123CCE0684B1B6803F00F033A689A4220
:101344000CD9654B3A68D2B21A70634B1B6803F030
:101354000F033A689A4201D00123B8E07B681B6806
:1013640003F00203002B20D07B681B6803F0040306
:10137400002B05D0594B9B68584A43F4E0539360C3
:101384007B681B6803F00803002B05D0534B9B6854
:10139400524A43F460439360504B9B6823F0F0023D
:1013A4007B689B684D4913438B607B681B6803F023
:1013B4000103002B44D07B685B68012B07D1474BAA
:1013C4001B6803F40033002B19D101237FE07B68F1
:1013D4005B68022B03D07B685B68032B07D13F4B10
:1013E4001B6803F00073002B09D101236FE03B4B12
:1013F4001B6803F00203002B01D1012367E0374B84
:101404009B6823F003027B685B68344913438B6059
:10141400FFF7DCFCF8600AE0FFF7D8FC0246FB6843
:10142400D31A41F28832934201D903234FE02B4B64
:101434009B6803F00C027B685B689B009A42EBD1CB
:10144400254B1B6803F00F033A689A420CD2224BD7
:101454003A68D2B21A70204B1B6803F00F033A6843
:101464009A4201D0012332E07B681B6803F0040335
:10147400002B08D0194B9B6823F4E0527B68DB688F
:10148400164913438B607B681B6803F00803002B29
:1014940009D0124B9B6823F460427B681B69DB0014
:1014A4000E4913438B6000F021F802460B4B9B68F6
:1014B4001B0903F00F030A49CB5C22FA03F3094A20
:1014C4001360094B1B681846FFF73CFC00231846C1
:1014D4001037BD4680BD00BF003C024000380240CA
:1014E400902F000800000020040000202DE9B04FD8
:1014F400A6B000AF0023C7F88C300023C7F894309F
:101504000023C7F888300023C7F884300023C7F8C5
:101514009030C84B9B6803F00C030C2B00F27E81C7
:1015240001A252F823F000BF611500082118000839
:10153400211800082118000869150008211800085E
:101544002118000821180008711500082118000846
:101554002118000821180008DB160008B64BC7F84C
:1015640090305FE1B54BC7F890305BE1B14B5B68FD
:1015740003F03F03C7F88C30AE4B5B6803F4800381
:10158400002B31D0AB4B5B689B090022BB66FA662B
:10159400BB6EC3F308033B6600237B66A74BD7E906
:1015A40018452A4603FB02F20023214601FB03F3FC
:1015B4001344A24A2146A1FB0212FA670A46BA67FB
:1015C400FA6F1344FB67D7F88C300022BB65FA65C9
:1015D400D7E91623D7E91E01FEF712FE02460B4691
:1015E4001346C7F8943064E0924B5B689B09002271
:1015F4003B657A653B6DC3F30803BB640023FB645E
:10160400D7E9124522462B464FF000004FF0000167
:10161400590141EAD261500102460B462146511A52
:101624003961294663EB01037B614FF000024FF0FF
:101634000003D7E904AB59468B01514643EA916351
:1016440051468A015146B2EB0108594663EB010940
:101654004FF000024FF000034FEAC90343EA587306
:101664004FEAC80290469946234618EB0303BB6031
:101674002B4649EB0303FB604FF000024FF00003DD
:10168400D7E9024529468B02214643EA9153214674
:101694008A0210461946D7F88C3000223B647A64DB
:1016A400D7E91023FEF7ACFD02460B461346C7F8F4
:1016B4009430604B5B681B0C03F0030301335B0045
:1016C400C7F88830D7F89420D7F88830B2FBF3F302
:1016D400C7F89030A6E0574B5B6803F03F03C7F8A8
:1016E4008C30544B5B6803F48003002B2AD0514B9D
:1016F4005B689B090022BB63FA63BB6BC3F30800FE
:1017040000214E4B03FB01F2002300FB03F31344BF
:101714004A4AA0FB02127A670A463A677A6F134470
:101724007B67D7F88C3000223B637A63D7E90C23BC
:10173400D7E91C01FEF764FD02460B461346C7F8C1
:1017440094305BE03B4B5B689B090022BB62FA620E
:10175400BB6AC3F308033B6200237B62D7E90889B1
:1017640042464B464FF000004FF00001590141EA58
:10177400D261500102460B464146B2EB010A49468A
:1017840063EB010B4FF000024FF000034FEA8B13A1
:1017940043EA9A634FEA8A12B2EB0A0463EB0B053D
:1017A4004FF000024FF00003EB0043EA5473E200F1
:1017B40014461D464346E3183B604B4645EB030382
:1017C4007B604FF000024FF00003D7E90045294643
:1017D4008B02214643EA915321468A021046194658
:1017E400D7F88C300022BB61FA61D7E90623FEF7F3
:1017F40007FD02460B461346C7F894300D4B5B6851
:101804001B0F03F00703C7F88430D7F89420D7F8E8
:101814008430B2FBF3F3C7F8903003E0064BC7F80B
:10182400903000BFD7F8903018469837BD46BDE8D1
:10183400B08F00BF003802400024F40040787D01DE
:1018440080B586B000AF78607B68002B01D101239E
:101854008DE27B681B6803F00103002B00F083809A
:10186400944B9B6803F00C03042B19D0914B9B6899
:1018740003F00C03082B06D18E4B5B6803F4800342
:10188400B3F5800F0CD08B4B9B6803F00C030C2B2F
:1018940012D1884B5B6803F48003B3F5800F0BD13E
:1018A400844B1B6803F40033002B5BD07B685B68BC
:1018B400002B57D101235AE27B685B68B3F5803F64
:1018C40006D17C4B1B687B4A43F4803313601DE0D4
:1018D4007B685B68B3F5A02F0CD1764B1B68754A07
:1018E40043F480231360734B1B68724A43F48033C0
:1018F40013600BE06F4B1B686E4A23F48033136054
:101904006C4B1B686B4A23F4802313607B685B6811
:10191400002B13D0FFF75AFA386108E0FFF756FAA4
:1019240002463B69D31A642B01D903231FE2614B9E
:101934001B6803F40033002BF0D014E0FFF746FAE1
:10194400386108E0FFF742FA02463B69D31A642B78
:1019540001D903230BE2574B1B6803F40033002B1C
:10196400F0D100E000BF7B681B6803F00203002B8A
:101974006FD0504B9B6803F00C03002B17D04D4BDA
:101984009B6803F00C03082B05D14A4B5B6803F4F6
:101994008003002B0BD0474B9B6803F00C030C2BEC
:1019A4001CD1444B5B6803F48003002B16D1414BDC
:1019B4001B6803F00203002B05D07B68DB68012B56
:1019C40001D00123D3E13B4B1B6823F0F8027B6871
:1019D4001B69DB00374913430B603AE07B68DB6823
:1019E400002B20D0344B01221A60FFF7EFF9386145
:1019F40008E0FFF7EBF902463B69D31A022B01D941
:101A04000323B4E12B4B1B6803F00203002BF0D03B
:101A1400284B1B6823F0F8027B681B69DB0025490F
:101A240013430B6015E0244B00221A60FFF7CEF934
:101A3400386108E0FFF7CAF902463B69D31A022B62
:101A440001D9032393E11B4B1B6803F00203002B12
:101A5400F0D17B681B6803F00803002B36D07B6849
:101A64005B69002B16D0154B01221A60FFF7AEF903
:101A7400386108E0FFF7AAF902463B69D31A022B42
:101A840001D9032373E10B4B5B6F03F00203002BBB
:101A9400F0D01BE0094B00221A60FFF797F9386178
:101AA4000EE0FFF793F902463B69D31A022B07D9DC
:101AB40003235CE10038024000004742800E4742A5
:101AC4008A4B5B6F03F00203002BEAD17B681B682F
:101AD40003F00403002B00F097800023FB75834B75
:101AE4001B6C03F08053002B0FD10023BB607F4B92
:101AF4001B6C7E4A43F0805313647C4B1B6C03F0D5
:101B04008053BB60BB680123FB75794B1B6803F4EE
:101B14008073002B18D1764B1B68754A43F480738D
:101B24001360FFF753F9386108E0FFF74FF90246F5
:101B34003B69D31A022B01D9032318E16C4B1B68B0
:101B440003F48073002BF0D07B689B68012B06D1D3
:101B5400664B1B6F654A43F0010313671CE07B6807
:101B64009B68052B0CD1614B1B6F604A43F0040347
:101B740013675E4B1B6F5D4A43F0010313670BE071
:101B84005A4B1B6F594A23F001031367574B1B6FC2
:101B9400564A23F0040313677B689B68002B15D017
:101BA400FFF714F938610AE0FFF710F902463B69C0
:101BB400D31A41F28832934201D90323D7E04B4B25
:101BC4001B6F03F00203002BEED014E0FFF7FEF8C6
:101BD40038610AE0FFF7FAF802463B69D31A41F28A
:101BE4008832934201D90323C1E0404B1B6F03F0B9
:101BF4000203002BEED1FB7D012B05D13B4B1B6C6B
:101C04003A4A23F0805313647B689B69002B00F0ED
:101C1400AD80364B9B6803F00C03082B60D07B68C7
:101C24009B69022B45D1334B00221A60FFF7CEF893
:101C3400386108E0FFF7CAF802463B69D31A022B61
:101C440001D9032393E0294B1B6803F00073002B95
:101C5400F0D17B68DA697B681B6A1A437B685B6A2C
:101C64009B011A437B689B6A5B08013B1B041A4374
:101C74007B68DB6A1B061A437B681B6B1B071B49CB
:101C840013434B601B4B01221A60FFF79FF8386126
:101C940008E0FFF79BF802463B69D31A022B01D9EF
:101CA400032364E0114B1B6803F00073002BF0D096
:101CB4005CE0104B00221A60FFF788F8386108E0F6
:101CC400FFF784F802463B69D31A022B01D9032398
:101CD4004DE0064B1B6803F00073002BF0D145E088
:101CE4007B689B69012B07D1012340E00038024047
:101CF40000700040600047421F4B5B68FB607B68DC
:101D04009B69012B30D0FB6803F480027B68DB699C
:101D14009A4229D1FB6803F03F027B681B6A9A420E
:101D240022D1FA6847F6C07313407A68526A920166
:101D3400934219D1FB6803F440327B689B6A5B08C9
:101D4400013B1B049A420FD1FB6803F070627B686D
:101D5400DB6A1B069A4207D1FB6803F0E0427B680A
:101D64001B6B1B079A4201D0012300E00023184695
:101D74001837BD4680BD00BF0038024080B582B030
:101D840000AF78607B68002B01D1012341E07B68C0
:101D940093F83D30DBB2002B06D17B68002283F838
:101DA4003C207868FEF79CFE7B68022283F83D2085
:101DB4007B681A687B6804331946104600F040FCBF
:101DC4007B68012283F846207B68012283F83E2049
:101DD4007B68012283F83F207B68012283F840203E
:101DE4007B68012283F841207B68012283F842202A
:101DF4007B68012283F843207B68012283F8442016
:101E04007B68012283F845207B68012283F83D200A
:101E1400002318460837BD4680BD80B582B000AFA8
:101E240078607B68002B01D1012341E07B6893F843
:101E34003D30DBB2002B06D17B68002283F83C20C6
:101E4400786800F039F87B68022283F83D207B68CB
:101E54001A687B6804331946104600F0F1FB7B686E
:101E6400012283F846207B68012283F83E207B68A8
:101E7400012283F83F207B68012283F840207B689D
:101E8400012283F841207B68012283F842207B6889
:101E9400012283F843207B68012283F844207B6875
:101EA400012283F845207B68012283F83D2000232A
:101EB40018460837BD4680BD80B483B000AF786053
:101EC40000BF0C37BD465DF8047B704780B582B017
:101ED40000AF78607B68002B01D1012341E07B686F
:101EE40093F83D30DBB2002B06D17B68002283F8E7
:101EF4003C20786800F039F87B68022283F83D20A2
:101F04007B681A687B6804331946104600F098FB16
:101F14007B68012283F846207B68012283F83E20F7
:101F24007B68012283F83F207B68012283F84020EC
:101F34007B68012283F841207B68012283F84220D8
:101F44007B68012283F843207B68012283F84420C4
:101F54007B68012283F845207B68012283F83D20B9
:101F6400002318460837BD4680BD80B483B000AF57
:101F7400786000BF0C37BD465DF8047B70470000F5
:101F840080B584B000AF786039603B68002B09D11C
:101F94007B6893F83E30DBB2012B14BF012300238E
:101FA400DBB222E03B68042B09D17B6893F83F3015
:101FB400DBB2012B14BF01230023DBB215E03B6825
:101FC400082B09D17B6893F84030DBB2012B14BF96
:101FD40001230023DBB208E07B6893F84130DBB2D5
:101FE400012B14BF01230023DBB2002B01D00123FA
:101FF4007CE03B68002B04D17B68022283F83E20FE
:1020040013E03B68042B04D17B68022283F83F2051
:102014000BE03B68082B04D17B68022283F8402044
:1020240003E07B68022283F841207B681B6801225D
:102034003968184600F07FFE7B681B682D4A93427E
:1020440004D07B681B682C4A934201D1012300E031
:102054000023002B07D07B681B685A6C7B681B68C5
:1020640042F400425A647B681B68224A934222D09D
:102074007B681B68B3F1804F1DD07B681B681F4AC7
:10208400934218D07B681B681D4A934213D07B6827
:102094001B681C4A93420ED07B681B68164A934205
:1020A40009D07B681B68184A934204D07B681B687C
:1020B400164A934211D17B681B689B6803F007039F
:1020C400FB60FB68062B10D07B681B681A687B6872
:1020D4001B6842F001021A6007E07B681B681A68FB
:1020E4007B681B6842F001021A600023184610370F
:1020F400BD4680BD000001400004014000040040D2
:1021040000080040000C004000400140001800405E
:1021140080B582B000AF786039607B681B680022AC
:102124003968184600F007FE7B681B682E4A934204
:1021340004D07B681B682D4A934201D1012300E03F
:102144000023002B17D07B681B681A6A41F2111315
:102154001340002B0FD17B681B681A6A40F244437A
:102164001340002B07D17B681B685A6C7B681B6883
:1021740022F400425A647B681B681A6A41F2111304
:102184001340002B0FD17B681B681A6A40F244434A
:102194001340002B07D17B681B681A687B681B6897
:1021A40022F001021A603B68002B04D17B680122F3
:1021B40083F83E2013E03B68042B04D17B680122A2
:1021C40083F83F200BE03B68082B04D17B68012295
:1021D40083F8402003E07B68012283F84120002338
:1021E40018460837BD4680BD000001400004014088
:1021F40080B586B000AFF860B9607A600023FB75E3
:10220400FB6893F83C30012B01D1022348E0FB68C2
:10221400012283F83C207B680C2B39D801A252F8A8
:1022240023F000BF5D2200089522000895220008D3
:10223400952200086B2200089522000895220008C8
:1022440095220008792200089522000895220008AA
:102254009522000887220008FB681B68B9681846A5
:1022640000F08EFA17E0FB681B68B968184600F0A6
:10227400F7FA10E0FB681B68B968184600F066FBC3
:1022840009E0FB681B68B968184600F0D3FB02E05C
:102294000123FB7500BFFB68002283F83C20FB7D13
:1022A40018461837BD4680BD80B586B000AFF860CB
:1022B400B9607A600023FB75FB6893F83C30012B0E
:1022C40001D10223AEE0FB68012283F83C207B6845
:1022D4000C2B00F29F8001A252F823F01523000872
:1022E400192400081924000819240008552300089B
:1022F4001924000819240008192400089723000849
:10230400192400081924000819240008D7230008F8
:10231400FB681B68B968184600F032FAFB681B6852
:102324009A69FB681B6842F008029A61FB681B68A3
:102334009A69FB681B6822F004029A61FB681B68B7
:102344009969BB681A69FB681B680A439A6164E06F
:10235400FB681B68B968184600F082FAFB681B68C2
:102364009A69FB681B6842F400629A61FB681B6807
:102374009A69FB681B6822F480629A61FB681B6897
:102384009969BB681B691A02FB681B680A439A6156
:1023940043E0FB681B68B968184600F0D7FAFB688D
:1023A4001B68DA69FB681B6842F00802DA61FB68A3
:1023B4001B68DA69FB681B6822F00402DA61FB68B7
:1023C4001B68D969BB681A69FB681B680A43DA6130
:1023D40023E0FB681B68B968184600F02BFBFB6818
:1023E4001B68DA69FB681B6842F40062DA61FB6807
:1023F4001B68DA69FB681B6822F48062DA61FB6897
:102404001B68D969BB681B691A02FB681B680A430D
:10241400DA6102E00123FB7500BFFB68002283F848
:102424003C20FB7D18461837BD4680BD80B584B07E
:1024340000AF786039600023FB737B6893F83C300D
:10244400012B01D10223B4E07B68012283F83C20F4
:102454007B68022283F83D207B681B689B68BB6015
:10246400BB6823F07703BB60BB6823F47F43BB6086
:102474007B681B68BA689A603B681B68B3F5005FA9
:102484003ED0B3F5005F00F28780B3F5805F00F0C3
:102494008680B3F5805F7FD8702B1AD0702B7BD8E1
:1024A400602B50D0602B77D8502B3CD0502B73D856
:1024B400402B58D0402B6FD8302B64D0302B6BD8A6
:1024C400202B60D0202B67D8002B5CD0102B5AD047
:1024D40062E07B6818683B6899683B685A683B68A7
:1024E400DB6800F008FC7B681B689B68BB60BB680A
:1024F40043F07703BB607B681B68BA689A604FE05F
:102504007B6818683B6899683B685A683B68DB6875
:1025140000F0F1FB7B681B689A687B681B6842F4D7
:1025240080429A603CE07B6818683B6859683B6865
:10253400DB681A4600F065FB7B681B68502118466F
:1025440000F0BEFB2CE07B6818683B6859683B6868
:10255400DB681A4600F084FB7B681B686021184620
:1025640000F0AEFB1CE07B6818683B6859683B6868
:10257400DB681A4600F045FB7B681B68402118465F
:1025840000F09EFB0CE07B681A683B681B681946E8
:10259400104600F095FB03E00123FB7300E000BF4D
:1025A4007B68012283F83D207B68002283F83C206D
:1025B400FB7B18461037BD4680BD80B582B000AFA6
:1025C400786039607B6893F83C30012B01D1022399
:1025D40031E07B68012283F83C207B68022283F887
:1025E4003D203968786800F07BFA0346002B09D057
:1025F4007B68012283F83D207B68002283F83C201D
:10260400012318E07B681B68DA687B681B6822F08A
:102614004002DA607B681B68DA687B681B6822F416
:102624008042DA607B68012283F83D207B680022C7
:1026340083F83C20002318460837BD4680BD0000BF
:1026440080B485B000AF786039607B681B68FB603C
:102654007B68404A934213D07B68B3F1804F0FD01C
:102664007B683D4A93420BD07B683C4A934207D037
:102674007B683B4A934203D07B683A4A934208D131
:10268400FB6823F07003FB603B685B68FA681343E4
:10269400FB607B682F4A93422BD07B68B3F1804F59
:1026A40027D07B682C4A934223D07B682B4A9342E1
:1026B4001FD07B682A4A93421BD07B68294A9342E5
:1026C40017D07B68284A934213D07B68274A9342E9
:1026D4000FD07B68264A93420BD07B68254A9342ED
:1026E40007D07B68244A934203D07B68234A9342F1
:1026F40008D1FB6823F44073FB603B68DB68FA682D
:102704001343FB60FB6823F080023B685B6913435F
:10271400FB607B68FA681A603B689A687B68DA62D7
:102724003B681A687B689A627B680A4A934203D0C2
:102734007B680C4A934203D13B681A697B681A632D
:102744007B6801225A6100BF1437BD465DF8047BE3
:10275400704700BF00000140000400400008004032
:10276400000C0040000401400040014000440140CE
:102774000048014000180040001C004000200040B8
:1027840080B487B000AF786039607B681B6A23F03F
:1027940001027B681A627B681B6A7B617B685B68E9
:1027A4003B617B689B69FB60FB6823F07003FB6003
:1027B400FB6823F00303FB603B681B68FA68134360
:1027C400FB607B6923F002037B613B689B687A6949
:1027D40013437B617B68204A934203D07B681F4A82
:1027E40093420CD17B6923F008037B613B68DB686F
:1027F4007A6913437B617B6923F004037B617B6803
:10280400154A934203D07B68144A934211D13B6921
:1028140023F480733B613B6923F400733B613B68A1
:102824005B693A6913433B613B689B693A691343AB
:102834003B617B683A695A607B68FA689A613B68D5
:102844005A687B685A637B687A691A6200BF1C37CE
:10285400BD465DF8047B7047000001400004014060
:1028640080B487B000AF786039607B681B6A23F05E
:1028740010027B681A627B681B6A7B617B685B68F9
:102884003B617B689B69FB60FB6823F4E043FB606E
:10289400FB6823F44073FB603B681B681B02FA6807
:1028A4001343FB607B6923F020037B613B689B68D7
:1028B4001B017A6913437B617B68224A934203D0EC
:1028C4007B68214A93420DD17B6923F080037B61AD
:1028D4003B68DB681B017A6913437B617B6923F0E6
:1028E40040037B617B68174A934203D07B68164A96
:1028F400934213D13B6923F480633B613B6923F426
:1029040000633B613B685B699B003A6913433B612D
:102914003B689B699B003A6913433B617B683A6956
:102924005A607B68FA689A613B685A687B689A6364
:102934007B687A691A6200BF1C37BD465DF8047B68
:10294400704700BF000001400004014080B487B01C
:1029540000AF786039607B681B6A23F480727B68FF
:102964001A627B681B6A7B617B685B683B617B687E
:10297400DB69FB60FB6823F07003FB60FB6823F0FA
:102984000303FB603B681B68FA681343FB607B69C5
:1029940023F400737B613B689B681B027A691343D1
:1029A4007B617B68214A934203D07B68204A93422F
:1029B4000DD17B6923F400637B613B68DB681B02F8
:1029C4007A6913437B617B6923F480637B617B6851
:1029D400164A934203D07B68154A934213D13B694C
:1029E40023F480533B613B6923F400533B613B6810
:1029F4005B691B013A6913433B613B689B691B019B
:102A04003A6913433B617B683A695A607B68FA68A8
:102A1400DA613B685A687B68DA637B687A691A62B0
:102A240000BF1C37BD465DF8047B704700000140C1
:102A34000004014080B487B000AF786039607B68DF
:102A44001B6A23F480527B681A627B681B6A3B61B1
:102A54007B685B687B617B68DB69FB60FB6823F4F4
:102A6400E043FB60FB6823F44073FB603B681B6836
:102A74001B02FA681343FB603B6923F400533B6178
:102A84003B689B681B033A6913433B617B68124AAA
:102A9400934203D07B68114A934209D17B6923F4A2
:102AA40080437B613B685B699B017A6913437B616B
:102AB4007B687A695A607B68FA68DA613B685A68AD
:102AC4007B681A647B683A691A6200BF1C37BD468A
:102AD4005DF8047B704700BF000001400004014022
:102AE40080B586B000AF786039600023FB757B68E1
:102AF4001B689B683B613B6923F070033B613B6847
:102B04005B683A6913433B613B6923F007033B610C
:102B14003B681B683A6913433B617B681B683A69ED
:102B24009A603B685B68702B1AD0702B60D8602B5E
:102B340054D0602B5CD8502B46D0502B58D8402B07
:102B440019D0402B54D8302B55D0302B50D8202BB3
:102B540051D0202B4CD8002B4DD0102B4BD047E01C
:102B64007B6818683B68D9683B689A683B681B694E
:102B740000F0C1F840E03B681B68052B01D101233C
:102B84003BE07B681B681B6AFB607B681B681A6AF6
:102B94007B681B6822F001021A627B681B689B69D0
:102BA400BB60BB6823F0F003BB603B681B691B017F
:102BB400BA681343BB607B681B68BA689A617B6818
:102BC4001B68FA681A6217E07B6818683B689968A2
:102BD4003B681B691A4600F014F80DE07B6818681E
:102BE4003B6899683B681B691A4600F039F803E0B2
:102BF4000123FB7500E000BFFB7D18461837BD4676
:102C040080BD80B487B000AFF860B9607A60FB68BB
:102C14001B6A7B61FB681B6A23F00102FB681A6272
:102C2400FB689B693B613B6923F0F0033B617B6874
:102C34001B013A6913433B617B6923F00A037B61FF
:102C44007A69BB6813437B61FB683A699A61FB68E4
:102C54007A691A6200BF1C37BD465DF8047B704771
:102C640080B487B000AFF860B9607A60FB681B6A13
:102C740023F01002FB681A62FB689B697B61FB68A6
:102C84001B6A3B617B6923F470437B617B681B0394
:102C94007A6913437B613B6923F0A0033B61BB6802
:102CA4001B013A6913433B61FB687A699A61FB68CB
:102CB4003A691A6200BF1C37BD465DF8047B704751
:102CC40080B485B000AF786039607B689B68FB6036
:102CD400FB6823F07003FB603A68FB68134343F01E
:102CE4000703FB607B68FA689A6000BF1437BD462F
:102CF4005DF8047B704780B487B000AFF860B960BA
:102D04007A603B60FB689B687B617B6923F47F434B
:102D14007B613B681A027B681A43BB6813437A6978
:102D240013437B61FB687A699A6000BF1C37BD4618
:102D34005DF8047B704780B487B000AFF860B96079
:102D44007A60BB6803F01F03012202FA03F37B617C
:102D5400FB681A6A7B69DB431A40FB681A62FB68EA
:102D64001A6ABB6803F01F03796801FA03F31A4374
:102D7400FB681A6200BF1C37BD465DF8047B7047D0
:102D840080B485B000AF786039607B6893F83C30DC
:102D9400012B01D102235AE07B68012283F83C20F5
:102DA4007B68022283F83D207B681B685B68FB60BC
:102DB4007B681B689B68BB60FB6823F07003FB6047
:102DC4003B681B68FA681343FB607B681B68FA68FE
:102DD4005A607B681B68214A934222D07B681B6837
:102DE400B3F1804F1DD07B681B681D4A934218D0F5
:102DF4007B681B681B4A934213D07B681B681A4A82
:102E040093420ED07B681B68184A934209D07B68B2
:102E14001B68174A934204D07B681B68154A934287
:102E24000CD1BB6823F08003BB603B685B68BA6865
:102E34001343BB607B681B68BA689A607B68012295
:102E440083F83D207B68002283F83C200023184649
:102E54001437BD465DF8047B704700BF0000014095
:102E64000004004000080040000C00400004014041
:102E7400004001400018004080B485B000AF786085
:102E840039600023FB607B6893F83C30012B01D14F
:102E940002233DE07B68012283F83C20FB6823F099
:102EA400FF023B68DB681343FB60FB6823F440725A
:102EB4003B689B681343FB60FB6823F480623B68B8
:102EC4005B681343FB60FB6823F400623B681B6888
:102ED4001343FB60FB6823F480523B681B69134374
:102EE400FB60FB6823F400523B685B691343FB609F
:102EF400FB6823F480423B68DB691343FB607B6817
:102F04001B68FA685A647B68002283F83C2000231B
:102F140018461437BD465DF8047B704770B50D4DF7
:102F24000D4C641BA4100026A64209D10B4D0C4C79
:102F340000F020F8641BA4100026A64205D170BD41
:102F440055F8043B98470136EEE755F8043B98479B
:102F54000136F2E7A82F0008A82F0008A82F0008C0
:102F6400AC2F000802440346934200D1704703F893
:102F7400011BF9E7F8B500BFF8BC08BC9E467047D2
:0C2F8400F8B500BFF8BC08BC9E467047C2
:102F90000000000000000000010203040607080909
:082FA00094D2FF7F0100000044
:042FA800E901000833
:042FAC00C501000853
:0C2FB0000024F4001000000001000000EC
:0400000508000CB132
:00000001FF
