:020000040800F2
:10000000002800203D040008E1030008E703000881
:10001000ED030008F3030008F903000800000000E6
:10002000000000000000000000000000FF030008C6
:100030000B04000800000000170400082304000857
:10004000850400088504000885040008850400086C
:10005000850400088504000885040008850400085C
:10006000850400088504000885040008850400084C
:10007000850400088504000885040008850400083C
:10008000850400088504000885040008850400082C
:10009000850400088504000885040008850400081C
:1000A000850400088504000885040008850400080C
:1000B000850400088504000800000000850400088D
:1000C000850400080000000000000000850400080E
:1000D00000000000850400088504000800000000FE
:1000E000850400088504000885040008000000005D
:1000F0000000000000000000000000000000000000
:0C01000000000000000000005FF808F1A3
:10010C0010B5054C237833B9044B13B10448AFF345
:10011C0000800123237010BD10000020000000009F
:10012C00181E000808B5034B1BB103490348AFF375
:10013C00008008BD0000000014000020181E0008FC
:10014C0080B500AF00F09AF900F016F800F0C2F894
:10015C0000F04EF80021064801F014F9054B1A88FE
:10016C00034B1B685A634FF47A7000F0E9F9F5E71A
:10017C002C0000200000002080B590B000AF07F1EB
:10018C00180328220021184601F038FE3B1D0022DE
:10019C001A605A609A60DA601A610223BB6101230B
:1001AC00BB621023FB6200237B6307F11803184624
:1001BC0000F062FC0346002B01D000F0C7F80F23BF
:1001CC007B600023BB600023FB6000233B610023AA
:1001DC007B613B1D0021184600F0D0FE0346002B2E
:1001EC0001D000F0B3F800BF4037BD4680BD000021
:1001FC0080B58EB000AF07F1280300221A605A6058
:10020C009A60DA6007F1200300221A605A603B1DE5
:10021C0000221A605A609A60DA601A615A619A6117
:10022C002B4B4FF080421A60294B00225A60284B0E
:10023C0000229A60264B6322DA60254B00221A6159
:10024C00234B00229A61224800F0F4FF0346002B56
:10025C0001D000F07BF84FF48053BB6207F1280308
:10026C0019461B4801F0ECF90346002B01D000F0B5
:10027C006DF8174801F02DF80346002B01D000F063
:10028C0065F800233B6200237B6207F120031946CB
:10029C000F4801F037FD0346002B01D000F056F853
:1002AC0060237B600023BB600023FB6000237B6129
:1002BC003B1D00221946064801F000F90346002BAD
:1002CC0001D000F043F800BF3837BD4680BD00BFF9
:1002DC002C00002080B586B000AF07F10803002287
:1002EC001A605A609A60DA60164B9B69154A43F0A3
:1002FC0020039361134B9B6903F020037B607B68A5
:10030C00104B9B690F4A43F0040393610D4B9B699F
:10031C0003F004033B603B680123BB600223FB60DA
:10032C0002237B6107F108031946074800F010FA15
:10033C0000220121044800F087FB00BF1837BD469E
:10034C0080BD00BF001002400008014080B400AF27
:10035C0072B600BFFEE7000080B483B000AF0E4B56
:10036C009B690D4A43F0010393610B4B9B6903F0AE
:10037C0001037B607B68084BDB69074A43F08053C1
:10038C00D361054BDB6903F080533B603B6800BFD6
:10039C000C37BD4680BC70470010024080B485B05D
:1003AC0000AF78607B681B68B3F1804F0BD1084BB2
:1003BC00DB69074A43F00103D361054BDB6903F0AA
:1003CC000103FB60FB6800BF1437BD4680BC70475F
:1003DC000010024080B400AFFEE780B400AFFEE72F
:1003EC0080B400AFFEE780B400AFFEE780B400AF8E
:1003FC00FEE780B400AF00BFBD4680BC704780B440
:10040C0000AF00BFBD4680BC704780B400AF00BFDA
:10041C00BD4680BC704780B500AF00F075F800BFDA
:10042C0080BD80B400AF00BFBD4680BC70470000EB
:10043C00FFF7F7FF0B480C490C4A002302E0D45895
:10044C00C4500433C4188C42F9D3094A094C002314
:10045C0001E013600432A242FBD301F0ABFCFFF7C6
:10046C006FFE704700000020100000205C1E00088A
:10047C001000002078000020FEE7000080B500AFDF
:10048C00084B1B68074A43F010031360032000F06D
:10049C002BF90F2000F008F8FFF75EFF0023184639
:1004AC0080BD00BF0020024080B582B000AF7860F4
:1004BC00124B1A68124B1B7819464FF47A73B3FB24
:1004CC00F1F3B2FBF3F3184600F035F90346002BB9
:1004DC0001D001230EE07B680F2B0AD8002279682B
:1004EC004FF0FF3000F00BF9064A7B6813600023D5
:1004FC0000E0012318460837BD4680BD04000020EB
:10050C000C0000200800002080B400AF054B1B78C5
:10051C001A46054B1B681344034A136000BFBD46C3
:10052C0080BC70470C0000207400002080B400AF29
:10053C00024B1B681846BD4680BC704774000020F7
:10054C0080B584B000AF7860FFF7F0FFB8607B68CF
:10055C00FB60FB68B3F1FF3F05D00A4B1B781A46D2
:10056C00FB681344FB6000BFFFF7E0FF0246BB686B
:10057C00D31AFA689A42F7D800BF00BF1037BD46AD
:10058C0080BD00BF0C00002080B485B000AF786047
:10059C007B6803F00703FB600C4BDB68BB60BA683D
:1005AC004FF6FF031340BB60FB681A02BB68134392
:1005BC0043F0BF6343F40033BB60044ABB68D360B1
:1005CC0000BF1437BD4680BC704700BF00ED00E093
:1005DC0080B400AF044BDB681B0A03F0070318461A
:1005EC00BD4680BC704700BF00ED00E080B483B016
:1005FC0000AF03463960FB7197F90730002B0ADB1B
:10060C003B68DAB20C4997F907301201D2B20B44AD
:10061C0083F800230AE03B68DAB20849FB7903F05F
:10062C000F03043B1201D2B20B441A7600BF0C37F5
:10063C00BD4680BC704700BF00E100E000ED00E06B
:10064C0080B489B000AFF860B9607A60FB6803F0E1
:10065C000703FB61FB69C3F10703042B28BF0423C9
:10066C00BB61FB690433062B02D9FB69033B00E039
:10067C0000237B614FF0FF32BB6902FA03F3DA43CC
:10068C00BB681A407B699A404FF0FF317B6901FAD5
:10069C0003F3D9437B680B40134318462437BD46FC
:1006AC0080BC704780B582B000AF78607B68013B3E
:1006BC00B3F1807F01D301230FE00A4A7B68013B31
:1006CC0053600F214FF0FF30FFF790FF054B0022D6
:1006DC009A60044B07221A60002318460837BD465F
:1006EC0080BD00BF10E000E080B582B000AF786044
:1006FC007868FFF749FF00BF0837BD4680BD80B55D
:10070C0086B000AF0346B9607A60FB7300237B614F
:10071C00FFF75EFF78617A68B9687869FFF790FF38
:10072C00024697F90F3011461846FFF75FFF00BFDE
:10073C001837BD4680BD80B582B000AF7860786850
:10074C00FFF7B0FF034618460837BD4680BD0000D2
:10075C0080B48BB000AF7860396000237B620023DB
:10076C003B6261E101227B6A02FA03F3FB613B68A5
:10077C001B68FA691340BB61BA69FB699A4240F085
:10078C0050813B685B68974A93425ED0954A93428E
:10079C0075D8954A934258D0934A93426FD8934A4E
:1007AC00934252D0914A934269D8914A93424CD089
:1007BC008F4A934263D88F4A934246D08D4A9342D4
:1007CC005DD8122B2AD8122B59D801A252F823F03B
:1007DC00570800083108000843080008850800087D
:1007EC008B0800088B0800088B0800088B08000891
:1007FC008B0800088B0800088B0800088B08000881
:10080C008B0800088B0800088B0800088B08000870
:10081C008B080008390800084D080008764A9342F6
:10082C0013D02CE03B68DB683B6229E03B68DB685B
:10083C0004333B6224E03B68DB6808333B621FE017
:10084C003B68DB680C333B621AE03B689B68002B0F
:10085C0002D104233B6213E03B689B68012B05D15A
:10086C0008233B627B68FA691A6109E008233B6242
:10087C007B68FA695A6103E000233B6200E000BF29
:10088C00BB69FF2B01D87B6801E07B6804337B617B
:10089C00BB69FF2B02D87B6A9B0002E07B6A083B9A
:1008AC009B003B617B691A680F213B6901FA03F3DA
:1008BC00DB431A40396A3B6901FA03F31A437B693B
:1008CC001A603B685B6803F08053002B00F0A98032
:1008DC004A4B9B69494A43F001039361474B9B691F
:1008EC0003F00103BB60BB68454A7B6A9B0802337B
:1008FC0052F82330FB607B6A03F003039B000F224A
:10090C0002FA03F3DB43FA681340FB607B683D4A51
:10091C0093420DD07B683C4A934207D07B683B4A9C
:10092C00934201D1022304E0032302E0012300E0FF
:10093C0000237A6A02F0030292009340FA68134390
:10094C00FB602F497B6A9B080233FA6841F823202D
:10095C003B685B6803F48013002B06D02C4B9A6821
:10096C002B49BB6913438B6006E0294B9A68BB6922
:10097C00DB43274913408B603B685B6803F400132F
:10098C00002B06D0224BDA682149BB691343CB609C
:10099C0006E01F4BDA68BB69DB431D491340CB6093
:1009AC003B685B6803F40033002B06D0184B5A6885
:1009BC001749BB6913434B6006E0154B5A68BB697A
:1009CC00DB43134913404B603B685B6803F4803393
:1009DC00002B1FD00E4B1A680D49BB6913430B60DB
:1009EC001FE000BF00003210000031100000221088
:1009FC000000211000001210000011100010024025
:100A0C000000014000080140000C014000100140B2
:100A1C00000401400B4B1A68BB69DB4309491340C6
:100A2C000B607B6A01337B623B681A687B6A22FA33
:100A3C0003F3002B7FF496AE00BF00BF2C37BD46EE
:100A4C0080BC70470004014080B483B000AF786074
:100A5C000B467B8013467B707B78002B03D07A8807
:100A6C007B681A6103E07B881A047B681A6100BFFB
:100A7C000C37BD4680BC704780B586B000AF78603F
:100A8C007B68002B01D1012372E27B681B6803F0A9
:100A9C000103002B00F08780924B5B6803F00C0382
:100AAC00042B0CD08F4B5B6803F00C03082B12D17A
:100ABC008C4B5B6803F48033B3F5803F0BD1894BCF
:100ACC001B6803F40033002B6CD07B685B68002B35
:100ADC0068D101234CE27B685B68B3F5803F06D19B
:100AEC00804B1B687F4A43F4803313602EE07B6895
:100AFC005B68002B0CD17B4B1B687A4A23F4803348
:100B0C001360784B1B68774A23F4802313601DE035
:100B1C007B685B68B3F5A02F0CD1724B1B68714AD4
:100B2C0043F4802313606F4B1B686E4A43F480338D
:100B3C0013600BE06B4B1B686A4A23F48033136021
:100B4C00684B1B68674A23F4802313607B685B68DF
:100B5C00002B13D0FFF7EAFC386108E0FFF7E6FC46
:100B6C0002463B69D31A642B01D9032300E25D4B87
:100B7C001B6803F40033002BF0D014E0FFF7D6FC15
:100B8C00386108E0FFF7D2FC02463B69D31A642BAC
:100B9C0001D90323ECE1534B1B6803F40033002B06
:100BAC00F0D100E000BF7B681B6803F00203002B50
:100BBC0063D04C4B5B6803F00C03002B0BD0494B00
:100BCC005B6803F00C03082B1CD1464B5B6803F4E9
:100BDC008033002B16D1434B1B6803F00203002B10
:100BEC0005D07B681B69012B01D00123C0E13D4B73
:100BFC001B6823F0F8027B685B69DB0039491343FF
:100C0C000B603AE07B681B69002B20D0364B01222D
:100C1C001A60FFF78BFC386108E0FFF787FC02468F
:100C2C003B69D31A022B01D90323A1E12D4B1B687D
:100C3C0003F00203002BF0D02A4B1B6823F0F802C0
:100C4C007B685B69DB00274913430B6015E0264B7F
:100C5C0000221A60FFF76AFC386108E0FFF766FCB7
:100C6C0002463B69D31A022B01D9032380E11D4BA9
:100C7C001B6803F00203002BF0D17B681B6803F0A8
:100C8C000803002B3AD07B689B69002B19D0174BBB
:100C9C0001221A60FFF74AFC386108E0FFF746FCB6
:100CAC0002463B69D31A022B01D9032360E10D4B99
:100CBC005B6A03F00203002BF0D0012000F09CFAD9
:100CCC001CE00A4B00221A60FFF730FC38610FE081
:100CDC00FFF72CFC02463B69D31A022B08D90323DD
:100CEC0046E100BF00100240000042428004424234
:100CFC00924B5B6A03F00203002BE9D17B681B6803
:100D0C0003F00403002B00F0A6800023FB758B4B33
:100D1C00DB6903F08053002B0DD1884BDB69874ACC
:100D2C0043F08053D361854BDB6903F08053BB6088
:100D3C00BB680123FB75824B1B6803F48073002B8B
:100D4C0018D17F4B1B687E4A43F480731360FFF706
:100D5C00EDFB386108E0FFF7E9FB02463B69D31A6B
:100D6C00642B01D9032303E1754B1B6803F48073D7
:100D7C00002BF0D07B68DB68012B06D16F4B1B6A14
:100D8C006E4A43F0010313622DE07B68DB68002B95
:100D9C000CD16A4B1B6A694A23F001031362674B3F
:100DAC001B6A664A23F0040313621CE07B68DB6851
:100DBC00052B0CD1614B1B6A604A43F00403136290
:100DCC005E4B1B6A5D4A43F0010313620BE05B4B05
:100DDC001B6A5A4A23F001031362584B1B6A574A89
:100DEC0023F0040313627B68DB68002B15D0FFF73C
:100DFC009DFB38610AE0FFF799FB02463B69D31A69
:100E0C0041F28832934201D90323B1E04B4B1B6A68
:100E1C0003F00203002BEED014E0FFF787FB3861E0
:100E2C000AE0FFF783FB02463B69D31A41F2883292
:100E3C00934201D903239BE0404B1B6A03F002034E
:100E4C00002BEED1FB7D012B05D13C4BDB693B4AE2
:100E5C0023F08053D3617B68DB69002B00F0878023
:100E6C00364B5B6803F00C03082B61D07B68DB69A5
:100E7C00022B46D1334B00221A60FFF757FB386127
:100E8C0008E0FFF753FB02463B69D31A022B01D94A
:100E9C0003236DE0294B1B6803F00073002BF0D18A
:100EAC007B681B6AB3F5803F08D1244B5B6823F445
:100EBC0000327B689B68214913434B601F4B5B6876
:100ECC0023F474127B68196A7B685B6A0B431B49B9
:100EDC0013434B601B4B01221A60FFF727FB386151
:100EEC0008E0FFF723FB02463B69D31A022B01D91A
:100EFC0003233DE0114B1B6803F00073002BF0D073
:100F0C0035E0104B00221A60FFF710FB386108E047
:100F1C00FFF70CFB02463B69D31A022B01D90323C2
:100F2C0026E0064B1B6803F00073002BF0D11EE08B
:100F3C007B68DB69012B07D1012319E0001002400B
:100F4C0000700040600042420B4B5B68FB60FB682A
:100F5C0003F480327B681B6A9A4206D1FB6803F467
:100F6C0070127B685B6A9A4201D0012300E0002377
:100F7C0018461837BD4680BD0010024080B584B0BD
:100F8C0000AF786039607B68002B01D10123D0E081
:100F9C006A4B1B6803F007033A689A4210D9674BF7
:100FAC001B6823F0070265493B6813430B60634BD6
:100FBC001B6803F007033A689A4201D00123B8E09A
:100FCC007B681B6803F00203002B20D07B681B6836
:100FDC0003F00403002B05D0594B5B68584A43F4CB
:100FEC00E06353607B681B6803F00803002B05D09B
:100FFC00534B5B68524A43F460535360504B5B68ED
:10100C0023F0F0027B689B684D4913434B607B686F
:10101C001B6803F00103002B40D07B685B68012B3D
:10102C0007D1474B1B6803F40033002B15D1012368
:10103C007FE07B685B68022B07D1414B1B6803F098
:10104C000073002B09D1012373E03D4B1B6803F0A7
:10105C000203002B01D101236BE0394B5B6823F0B9
:10106C0003027B685B68364913434B60FFF75EFAFB
:10107C00F8600AE0FFF75AFA0246FB68D31A41F20D
:10108C008832934201D9032353E02D4B5B6803F064
:10109C000C027B685B689B009A42EBD1274B1B6868
:1010AC0003F007033A689A4210D2244B1B6823F0D2
:1010BC00070222493B6813430B60204B1B6803F06B
:1010CC0007033A689A4201D0012332E07B681B681F
:1010DC0003F00403002B08D0194B5B6823F4E06287
:1010EC007B68DB68164913434B607B681B6803F015
:1010FC000803002B09D0124B5B6823F460527B6809
:10110C001B69DB000E4913434B6000F021F80246CB
:10111C000B4B5B681B0903F00F030A49CB5C22FAEB
:10112C0003F3094A1360094B1B681846FFF7BCF917
:10113C00002318461037BD4680BD00BF002002407A
:10114C0000100240301E000804000020080000209F
:10115C0080B487B000AF0023FB600023BB6000238A
:10116C007B6100237B6000233B611E4B5B68FB6053
:10117C00FB6803F00C03042B02D0082B03D027E0F0
:10118C00194B3B6127E0FB689B0C03F00F03174ADC
:10119C00D35C7B60FB6803F48033002B10D0114BC5
:1011AC005B685B0C03F00103114AD35CBB607B688A
:1011BC000D4A03FB02F2BB68B2FBF3F37B6104E064
:1011CC007B680C4A02FB03F37B617B693B6102E0A9
:1011DC00054B3B6100BF3B6918461C37BD4680BCC4
:1011EC00704700BF0010024000127A00401E000839
:1011FC00501E000800093D0080B485B000AF786037
:10120C000A4B1B680A4AA2FB03235B0A7A6802FB9F
:10121C0003F3FB6000BFFB685A1EFA60002BF9D188
:10122C0000BF00BF1437BD4680BC704704000020CF
:10123C00D34D621080B582B000AF78607B68002B14
:10124C0001D1012341E07B6893F83D30DBB2002BE8
:10125C0006D17B68002283F83C207868FFF79EF863
:10126C007B68022283F83D207B681A687B68043314
:10127C001946104600F0ACFA7B68012283F8462030
:10128C007B68012283F83E207B68012283F83F2093
:10129C007B68012283F840207B68012283F841207F
:1012AC007B68012283F842207B68012283F843206B
:1012BC007B68012283F844207B68012283F8452057
:1012CC007B68012283F83D20002318460837BD4671
:1012DC0080BD80B582B000AF78607B68002B01D1F7
:1012EC00012341E07B6893F83D30DBB2002B06D143
:1012FC007B68002283F83C20786800F039F87B6822
:10130C00022283F83D207B681A687B6804331946F7
:10131C00104600F05DFA7B68012283F846207B685A
:10132C00012283F83E207B68012283F83F207B68F2
:10133C00012283F840207B68012283F841207B68DE
:10134C00012283F842207B68012283F843207B68CA
:10135C00012283F844207B68012283F845207B68B6
:10136C00012283F83D20002318460837BD4680BD76
:10137C0080B483B000AF786000BF0C37BD4680BC32
:10138C007047000080B584B000AF786039603B686E
:10139C00002B09D17B6893F83E30DBB2012B14BFD4
:1013AC0001230023DBB222E03B68042B09D17B68CC
:1013BC0093F83F30DBB2012B14BF01230023DBB2C7
:1013CC0015E03B68082B09D17B6893F84030DBB201
:1013DC00012B14BF01230023DBB208E07B6893F8D8
:1013EC004130DBB2012B14BF01230023DBB2002BF5
:1013FC0001D0012359E03B68002B04D17B68022209
:10140C0083F83E2013E03B68042B04D17B68022256
:10141C0083F83F200BE03B68082B04D17B68022249
:10142C0083F8402003E07B68022283F841207B682C
:10143C001B6801223968184600F040FC7B681B6869
:10144C001C4A934207D17B681B685A6C7B681B68EB
:10145C0042F400425A647B681B68164A934209D0D6
:10146C007B681B68B3F1804F04D07B681B68124A01
:10147C00934211D17B681B689B6803F00703FB60E8
:10148C00FB68062B10D07B681B681A687B681B688E
:10149C0042F001021A6007E07B681B681A687B68DF
:1014AC001B6842F001021A60002318461037BD4633
:1014BC0080BD00BF002C01400004004080B586B008
:1014CC0000AFF860B9607A600023FB75FB6893F895
:1014DC003C30012B01D10223AEE0FB68012283F8E2
:1014EC003C207B680C2B00F29F8001A252F823F069
:1014FC003115000835160008351600083516000899
:10150C007115000835160008351600083516000848
:10151C00B3150008351600083516000835160008F6
:10152C00F3150008FB681B68B968184600F0A8F9A9
:10153C00FB681B689A69FB681B6842F008029A6199
:10154C00FB681B689A69FB681B6822F004029A61AD
:10155C00FB681B689969BB681A69FB681B680A43BE
:10156C009A6164E0FB681B68B968184600F0EEF9F4
:10157C00FB681B689A69FB681B6842F400629A61FD
:10158C00FB681B689A69FB681B6822F480629A618D
:10159C00FB681B689969BB681B691A02FB681B68AE
:1015AC000A439A6143E0FB681B68B968184600F06F
:1015BC0037FAFB681B68DA69FB681B6842F00802A3
:1015CC00DA61FB681B68DA69FB681B6822F00402AD
:1015DC00DA61FB681B68D969BB681A69FB681B6810
:1015EC000A43DA6123E0FB681B68B968184600F00F
:1015FC0081FAFB681B68DA69FB681B6842F40062BD
:10160C00DA61FB681B68DA69FB681B6822F480628C
:10161C00DA61FB681B68D969BB681B691A02FB6835
:10162C001B680A43DA6102E00123FB7500BFFB680B
:10163C00002283F83C20FB7D18461837BD4680BD40
:10164C0080B584B000AF786039600023FB737B6891
:10165C0093F83C30012B01D10223B4E07B680122CA
:10166C0083F83C207B68022283F83D207B681B6852
:10167C009B68BB60BB6823F07703BB60BB6823F43B
:10168C007F43BB607B681B68BA689A603B681B68C9
:10169C00B3F5005F3ED0B3F5005F00F28780B3F581
:1016AC00805F00F08680B3F5805F7FD8702B1AD0F6
:1016BC00702B7BD8602B50D0602B77D8502B3CD024
:1016CC00502B73D8402B58D0402B6FD8302B64D074
:1016DC00302B6BD8202B60D0202B67D8002B5CD004
:1016EC00102B5AD062E07B6818683B6899683B689D
:1016FC005A683B68DB6800F0C2FA7B681B689B6821
:10170C00BB60BB6843F07703BB607B681B68BA683F
:10171C009A604FE07B6818683B6899683B685A6828
:10172C003B68DB6800F0ABFA7B681B689A687B68E7
:10173C001B6842F480429A603CE07B6818683B6806
:10174C0059683B68DB681A4600F022FA7B681B6814
:10175C005021184600F079FA2CE07B6818683B6839
:10176C0059683B68DB681A4600F040FA7B681B68D6
:10177C006021184600F069FA1CE07B6818683B6829
:10178C0059683B68DB681A4600F002FA7B681B68F4
:10179C004021184600F059FA0CE07B681A683B6847
:1017AC001B681946104600F050FA03E00123FB7346
:1017BC0000E000BF7B68012283F83D207B6800229B
:1017CC0083F83C20FB7B18461037BD4680BD0000DB
:1017DC0080B485B000AF786039607B681B68FB60B3
:1017EC007B68254A934207D07B68B3F1804F03D0C6
:1017FC007B68224A934208D1FB6823F07003FB609C
:10180C003B685B68FA681343FB607B681A4A934237
:10181C0007D07B68B3F1804F03D07B68174A9342A3
:10182C0008D1FB6823F44073FB603B68DB68FA6803
:10183C001343FB60FB6823F080023B685B69134336
:10184C00FB607B68FA681A603B689A687B68DA62AE
:10185C003B681A687B689A627B68074A934203D19B
:10186C003B681A697B681A637B6801225A6100BF66
:10187C001437BD4680BC7047002C0140000400406A
:10188C0080B487B000AF786039607B681B6A7B617D
:10189C007B681B6A23F001027B681A627B685B68B9
:1018AC003B617B689B69FB60FB6823F07003FB600A
:1018BC00FB6823F00303FB603B681B68FA68134367
:1018CC00FB607B6923F002037B613B689B687A6950
:1018DC0013437B617B681C4A93420CD17B6923F0D8
:1018EC0008037B613B68DB687A6913437B617B6926
:1018FC0023F004037B617B68134A934211D13B694B
:10190C0023F480733B613B6923F400733B613B68B8
:10191C005B693A6913433B613B689B693A691343C2
:10192C003B617B683A695A607B68FA689A613B68EC
:10193C005A687B685A637B687A691A6200BF1C37E5
:10194C00BD4680BC704700BF002C014080B487B0FE
:10195C0000AF786039607B681B6A7B617B681B6AAF
:10196C0023F010027B681A627B685B683B617B68C2
:10197C009B69FB60FB6823F4E043FB60FB6823F48A
:10198C004073FB603B681B681B02FA681343FB60E7
:10199C007B6923F020037B613B689B681B017A69A0
:1019AC0013437B617B681D4A93420DD17B6923F005
:1019BC0080037B613B68DB681B017A6913437B61A5
:1019CC007B6923F040037B617B68144A934213D1FB
:1019DC003B6923F480633B613B6923F400633B6107
:1019EC003B685B699B003A6913433B613B689B69AD
:1019FC009B003A6913433B617B683A695A607B6888
:101A0C00FA689A613B685A687B689A637B687A6962
:101A1C001A6200BF1C37BD4680BC7047002C0140C9
:101A2C0080B487B000AF786039607B681B6A7B61DB
:101A3C007B681B6A23F480727B681A627B685B6824
:101A4C003B617B68DB69FB60FB6823F07003FB6028
:101A5C00FB6823F00303FB603B681B68FA681343C5
:101A6C00FB607B6923F400737B613B689B681B0202
:101A7C007A6913437B617B681D4A93420DD17B6964
:101A8C0023F400637B613B68DB681B027A691343B8
:101A9C007B617B6923F480637B617B68144A93428E
:101AAC0013D13B6923F480533B613B6923F400530E
:101ABC003B613B685B691B013A6913433B613B68C3
:101ACC009B691B013A6913433B617B683A695A6015
:101ADC007B68FA68DA613B685A687B68DA637B6812
:101AEC007A691A6200BF1C37BD4680BC704700BFC4
:101AFC00002C014080B487B000AF786039607B68FF
:101B0C001B6A3B617B681B6A23F480527B681A62F8
:101B1C007B685B687B617B68DB69FB60FB6823F43B
:101B2C00E043FB60FB6823F44073FB603B681B687D
:101B3C001B02FA681343FB603B6923F400533B61BF
:101B4C003B689B681B033A6913433B617B680F4AF4
:101B5C00934209D17B6923F480437B613B685B69C9
:101B6C009B017A6913437B617B687A695A607B6855
:101B7C00FA68DA613B685A687B681A647B683A6970
:101B8C001A6200BF1C37BD4680BC7047002C014058
:101B9C0080B487B000AFF860B9607A60FB681B6AEC
:101BAC007B61FB681B6A23F00102FB681A62FB680D
:101BBC009B693B613B6923F0F0033B617B681B0134
:101BCC003A6913433B617B6923F00A037B617A69B1
:101BDC00BB6813437B61FB683A699A61FB687A695D
:101BEC001A6200BF1C37BD4680BC704780B487B0FA
:101BFC0000AFF860B9607A60FB681B6A7B61FB68B8
:101C0C001B6A23F01002FB681A62FB689B693B613C
:101C1C003B6923F470433B617B681B033A691343B4
:101C2C003B617B6923F0A0037B61BB681B017A6974
:101C3C0013437B61FB683A699A61FB687A691A62A3
:101C4C0000BF1C37BD4680BC704780B485B000AF68
:101C5C00786039607B689B68FB60FB6823F07003DD
:101C6C00FB603A68FB68134343F00703FB607B6837
:101C7C00FA689A6000BF1437BD4680BC704780B4C8
:101C8C0087B000AFF860B9607A603B60FB689B6816
:101C9C007B617B6923F47F437B613B681A027B6821
:101CAC001A43BB6813437A6913437B61FB687A69F7
:101CBC009A6000BF1C37BD4680BC704780B487B0AB
:101CCC0000AFF860B9607A60BB6803F01F030122B3
:101CDC0002FA03F37B61FB681A6A7B69DB431A40E7
:101CEC00FB681A62FB681A6ABB6803F01F03796809
:101CFC0001FA03F31A43FB681A6200BF1C37BD4696
:101D0C0080BC704780B485B000AF786039607B6868
:101D1C0093F83C30012B01D1022341E07B68012276
:101D2C0083F83C207B68022283F83D207B681B688B
:101D3C005B68FB607B681B689B68BB60FB6823F07F
:101D4C007003FB603B681B68FA681343FB607B689D
:101D5C001B68FA685A607B681B68144A934209D066
:101D6C007B681B68B3F1804F04D07B681B68104AFA
:101D7C0093420CD1BB6823F08003BB603B685B686B
:101D8C00BA681343BB607B681B68BA689A607B684F
:101D9C00012283F83D207B68002283F83C2000233D
:101DAC0018461437BD4680BC704700BF002C01405C
:101DBC000004004070B500260C4D0D4C641BA410A3
:101DCC00A64209D100F022F800260A4D0A4C641BE9
:101DDC00A410A64205D170BD55F8043B98470136B6
:101DEC00EEE755F8043B98470136F2E7541E00081D
:101DFC00541E0008541E0008581E000803460244D6
:101E0C00934200D1704703F8011BF9E7F8B500BF06
:101E1C00F8BC08BC9E467047F8B500BFF8BC08BCBF
:041E2C009E46704717
:101E3000000000000000000001020304060708097A
:101E400002030405060708090A0B0C0D0E0F1010FB
:041E5000010200008B
:041E54003101000850
:041E58000D01000870
:101E5C00320000000024F40010000000010000001B
:040000050800043DAE
:00000001FF
