:020000040800F2
:100000000028002089030008D9030008D90300084C
:10001000D9030008D9030008D90300080000000034
:10002000000000000000000000000000D9030008EC
:10003000D903000800000000D9030008D903000814
:10004000D9030008D9030008D9030008D903000820
:10005000D9030008D90300082D020008D9030008BD
:10006000D9030008D9030008D9030008D903000800
:10007000D9030008D9030008D9030008D9030008F0
:10008000D9030008D9030008D9030008D9030008E0
:10009000D9030008D9030008D9030008D9030008D0
:1000A000D9030008D9030008D9030008D9030008C0
:1000B000D9030008D9030008D9030008D9030008B0
:1000C000D9030008D9030008D9030008D9030008A0
:1000D000D9030008D9030008D9030008D903000890
:1000E000D9030008D903000800000000D903000864
:1000F000D9030008D9030008D9030008D903000870
:10010000D9030008D9030008D9030008D90300085F
:10011000D9030008D9030008D9030008D90300084F
:10012000D9030008D9030008D9030008D90300083F
:1001300010B5054C237833B9044B13B10448AFF321
:1001400000800123237010BD00000020000000008B
:100150002404000808B5034B1BB103490348AFF35F
:10016000008008BD000000000400002024040008F6
:1001700080B483B000AF0346FB7197F90730002BC2
:100180000BDBFB7903F01F02064997F907305B0987
:10019000012000FA02F241F8232000BF0C37BD46CF
:1001A00080BC704700E100E080B483B000AF03463C
:1001B0003960FB7197F90730002B0ADB3B68DAB234
:1001C0000C4997F907301201D2B20B4483F800238F
:1001D0000AE03B68DAB20849FB7903F00F03043BFD
:1001E0001201D2B20B441A7600BF0C37BD4680BC58
:1001F000704700BF00E100E000ED00E080B500AF17
:10020000084B1B6B074A43F00103136300F02CF803
:1002100000F084F8044B1B68034A43F001031360A9
:10022000F8E700BF003802400004004080B500AF8E
:100230000B4B5B6903F00103002B0ED0084B5B698D
:10024000074A43F001035361064B5B69054A83F09B
:1002500020035361642000F049F800BF80BD00BF57
:10026000003C01400000024080B500AF1B4B1B6802
:100270001A4A23F003031360184BDB68174A43F054
:100280000203D360154B1B68144A43F48063136068
:10029000134B5B6C124A43F480435364114B9B68CD
:1002A000104A23F00F0393600E4B0E4A9B68936035
:1002B0000D4B1B680C4A43F0010313600A4B9B680B
:1002C000094A43F0010393600620FFF751FF002124
:1002D0000620FFF769FF00BF80BD00BF000002409D
:1002E0000038024000380140003C014080B485B035
:1002F00000AF78600023FB6002E0FB680133FB6025
:100300007B684FF47A5203FB02F2FB689A42F4D8FE
:1003100000BF00BF1437BD4680BC704780B400AF3B
:10032000164B1B6C154A43F002031364144B1B68F5
:10033000134A43F400531360114B1B6A104A43F0F5
:10034000806313620F4B40F23F129A620D4B40F2F2
:100350003F12DA620B4B9F225A630A4B9B69094A90
:1003600043F060039361074B9B69064A43F008031F
:10037000936100BFBD4680BC704700BF003802409B
:1003800000000240000400400D488546AFF30080A5
:100390000C480D490D4A002302E0D458C4500433E0
:1003A000C4188C42F9D30A4A0A4C002301E01360B6
:1003B0000432A242FBD300F011F8FFF71FFFFEE763
:1003C0000028002000000020000000204404000855
:1003D000000000201C000020FEE7000070B5002691
:1003E0000C4D0D4C641BA410A64209D100F01AF864
:1003F00000260A4D0A4C641BA410A64205D170BD0C
:1004000055F8043B98470136EEE755F8043B98470A
:100410000136F2E73C0400083C0400083C040008F4
:1004200040040008F8B500BFF8BC08BC9E46704701
:0C043000F8B500BFF8BC08BC9E46704741
:04043C00550100085E
:04044000310100087E
:040000050800038963
:00000001FF
